{
  "address": "0x59CFE071164E6a445E61146240e9B4Eeb8eC51E9",
  "abi": [
    {
      "inputs": [
        {
          "internalType": "string",
          "name": "name",
          "type": "string"
        },
        {
          "internalType": "string",
          "name": "symbol",
          "type": "string"
        },
        {
          "internalType": "address",
          "name": "initialAccount",
          "type": "address"
        },
        {
          "internalType": "uint256",
          "name": "totalSupply",
          "type": "uint256"
        },
        {
          "internalType": "uint256[]",
          "name": "vestingDays",
          "type": "uint256[]"
        },
        {
          "internalType": "uint256[]",
          "name": "vestingBasisPoints",
          "type": "uint256[]"
        }
      ],
      "stateMutability": "payable",
      "type": "constructor"
    },
    {
      "anonymous": false,
      "inputs": [
        {
          "indexed": true,
          "internalType": "address",
          "name": "owner",
          "type": "address"
        },
        {
          "indexed": true,
          "internalType": "address",
          "name": "spender",
          "type": "address"
        },
        {
          "indexed": false,
          "internalType": "uint256",
          "name": "value",
          "type": "uint256"
        }
      ],
      "name": "Approval",
      "type": "event"
    },
    {
      "anonymous": false,
      "inputs": [
        {
          "indexed": true,
          "internalType": "address",
          "name": "previousOwner",
          "type": "address"
        },
        {
          "indexed": true,
          "internalType": "address",
          "name": "newOwner",
          "type": "address"
        }
      ],
      "name": "OwnershipTransferred",
      "type": "event"
    },
    {
      "anonymous": false,
      "inputs": [
        {
          "indexed": true,
          "internalType": "address",
          "name": "from",
          "type": "address"
        },
        {
          "indexed": true,
          "internalType": "address",
          "name": "to",
          "type": "address"
        },
        {
          "indexed": false,
          "internalType": "uint256",
          "name": "value",
          "type": "uint256"
        }
      ],
      "name": "Transfer",
      "type": "event"
    },
    {
      "anonymous": false,
      "inputs": [
        {
          "indexed": true,
          "internalType": "address",
          "name": "recipient",
          "type": "address"
        },
        {
          "indexed": false,
          "internalType": "uint256",
          "name": "value",
          "type": "uint256"
        },
        {
          "indexed": false,
          "internalType": "uint256",
          "name": "startDate",
          "type": "uint256"
        }
      ],
      "name": "Vesting",
      "type": "event"
    },
    {
      "inputs": [
        {
          "internalType": "address",
          "name": "owner",
          "type": "address"
        },
        {
          "internalType": "address",
          "name": "spender",
          "type": "address"
        }
      ],
      "name": "allowance",
      "outputs": [
        {
          "internalType": "uint256",
          "name": "",
          "type": "uint256"
        }
      ],
      "stateMutability": "view",
      "type": "function"
    },
    {
      "inputs": [
        {
          "internalType": "address",
          "name": "spender",
          "type": "address"
        },
        {
          "internalType": "uint256",
          "name": "amount",
          "type": "uint256"
        }
      ],
      "name": "approve",
      "outputs": [
        {
          "internalType": "bool",
          "name": "",
          "type": "bool"
        }
      ],
      "stateMutability": "nonpayable",
      "type": "function"
    },
    {
      "inputs": [
        {
          "internalType": "address",
          "name": "account",
          "type": "address"
        }
      ],
      "name": "balanceOf",
      "outputs": [
        {
          "internalType": "uint256",
          "name": "",
          "type": "uint256"
        }
      ],
      "stateMutability": "view",
      "type": "function"
    },
    {
      "inputs": [],
      "name": "decimals",
      "outputs": [
        {
          "internalType": "uint8",
          "name": "",
          "type": "uint8"
        }
      ],
      "stateMutability": "view",
      "type": "function"
    },
    {
      "inputs": [
        {
          "internalType": "address",
          "name": "spender",
          "type": "address"
        },
        {
          "internalType": "uint256",
          "name": "subtractedValue",
          "type": "uint256"
        }
      ],
      "name": "decreaseAllowance",
      "outputs": [
        {
          "internalType": "bool",
          "name": "",
          "type": "bool"
        }
      ],
      "stateMutability": "nonpayable",
      "type": "function"
    },
    {
      "inputs": [
        {
          "internalType": "address",
          "name": "spender",
          "type": "address"
        },
        {
          "internalType": "uint256",
          "name": "addedValue",
          "type": "uint256"
        }
      ],
      "name": "increaseAllowance",
      "outputs": [
        {
          "internalType": "bool",
          "name": "",
          "type": "bool"
        }
      ],
      "stateMutability": "nonpayable",
      "type": "function"
    },
    {
      "inputs": [],
      "name": "name",
      "outputs": [
        {
          "internalType": "string",
          "name": "",
          "type": "string"
        }
      ],
      "stateMutability": "view",
      "type": "function"
    },
    {
      "inputs": [],
      "name": "owner",
      "outputs": [
        {
          "internalType": "address",
          "name": "",
          "type": "address"
        }
      ],
      "stateMutability": "view",
      "type": "function"
    },
    {
      "inputs": [],
      "name": "remainingReserve",
      "outputs": [
        {
          "internalType": "uint256",
          "name": "",
          "type": "uint256"
        }
      ],
      "stateMutability": "view",
      "type": "function"
    },
    {
      "inputs": [],
      "name": "renounceOwnership",
      "outputs": [],
      "stateMutability": "nonpayable",
      "type": "function"
    },
    {
      "inputs": [],
      "name": "symbol",
      "outputs": [
        {
          "internalType": "string",
          "name": "",
          "type": "string"
        }
      ],
      "stateMutability": "view",
      "type": "function"
    },
    {
      "inputs": [],
      "name": "today",
      "outputs": [
        {
          "internalType": "uint128",
          "name": "",
          "type": "uint128"
        }
      ],
      "stateMutability": "view",
      "type": "function"
    },
    {
      "inputs": [
        {
          "internalType": "address",
          "name": "account",
          "type": "address"
        }
      ],
      "name": "totalBalanceOf",
      "outputs": [
        {
          "internalType": "uint256",
          "name": "",
          "type": "uint256"
        }
      ],
      "stateMutability": "view",
      "type": "function"
    },
    {
      "inputs": [],
      "name": "totalSupply",
      "outputs": [
        {
          "internalType": "uint256",
          "name": "",
          "type": "uint256"
        }
      ],
      "stateMutability": "view",
      "type": "function"
    },
    {
      "inputs": [
        {
          "internalType": "address",
          "name": "recipient",
          "type": "address"
        },
        {
          "internalType": "uint256",
          "name": "amount",
          "type": "uint256"
        }
      ],
      "name": "transfer",
      "outputs": [
        {
          "internalType": "bool",
          "name": "",
          "type": "bool"
        }
      ],
      "stateMutability": "nonpayable",
      "type": "function"
    },
    {
      "inputs": [
        {
          "internalType": "address",
          "name": "sender",
          "type": "address"
        },
        {
          "internalType": "address",
          "name": "recipient",
          "type": "address"
        },
        {
          "internalType": "uint256",
          "name": "amount",
          "type": "uint256"
        }
      ],
      "name": "transferFrom",
      "outputs": [
        {
          "internalType": "bool",
          "name": "",
          "type": "bool"
        }
      ],
      "stateMutability": "nonpayable",
      "type": "function"
    },
    {
      "inputs": [
        {
          "internalType": "address",
          "name": "newOwner",
          "type": "address"
        }
      ],
      "name": "transferOwnership",
      "outputs": [],
      "stateMutability": "nonpayable",
      "type": "function"
    },
    {
      "inputs": [
        {
          "internalType": "address",
          "name": "recipient",
          "type": "address"
        },
        {
          "internalType": "uint256",
          "name": "amount",
          "type": "uint256"
        },
        {
          "internalType": "uint256",
          "name": "startDate",
          "type": "uint256"
        }
      ],
      "name": "transferVested",
      "outputs": [],
      "stateMutability": "nonpayable",
      "type": "function"
    }
  ],
  "transactionHash": "0x24d93c11eb4bdf79a730ab23d158761ddab2d4548432d368efbb3c641b5412de",
  "args": [
    "Mondo Community Coin",
    "MNDCC",
    "0x866eaaA34Fa53f94EF6daF9940F476D3eb240eD2",
    "180000000000000000000000000",
    [
      2592000,
      5184000,
      7776000,
      10368000,
      12960000,
      15552000,
      18144000,
      20736000,
      23328000,
      25920000,
      28512000,
      31104000,
      33696000,
      36288000,
      38880000,
      41472000,
      44064000,
      46656000,
      49248000,
      51840000,
      54432000,
      57024000,
      59616000,
      62208000,
      64800000,
      67392000,
      69984000,
      72576000,
      75168000
    ],
    [
      50,
      100,
      150,
      200,
      250,
      300,
      350,
      400,
      450,
      500,
      550,
      600,
      650,
      700,
      750,
      800,
      850,
      900,
      950,
      1000,
      2000,
      3000,
      4000,
      5000,
      6000,
      7000,
      8000,
      9000,
      10000
    ]
  ],
  "solcInputHash": "a49e1fd782ec6214cce7c75c3351a1bf",
  "bytecode": "0x6080604052604051620038d6380380620038d6833981810160405281019062000029919062000bef565b8585816003908051906020019062000043929190620009ab565b5080600490805190602001906200005c929190620009ab565b505050600062000071620001e860201b60201c565b905080600560006101000a81548173ffffffffffffffffffffffffffffffffffffffff021916908373ffffffffffffffffffffffffffffffffffffffff1602179055508073ffffffffffffffffffffffffffffffffffffffff16600073ffffffffffffffffffffffffffffffffffffffff167f8be0079c531659141344cd1fd0a4f28419497f9722a3daafe3b4186f6b6457e060405160405180910390a350805182511462000157576040517f08c379a00000000000000000000000000000000000000000000000000000000081526004016200014e9062000ddf565b60405180910390fd5b83600660006101000a81548173ffffffffffffffffffffffffffffffffffffffff021916908373ffffffffffffffffffffffffffffffffffffffff160217905550620001aa8484620001f060201b60201c565b8160079080519060200190620001c292919062000a3c565b508060089080519060200190620001db92919062000a3c565b50505050505050620013f8565b600033905090565b600073ffffffffffffffffffffffffffffffffffffffff168273ffffffffffffffffffffffffffffffffffffffff16141562000263576040517f08c379a00000000000000000000000000000000000000000000000000000000081526004016200025a9062000e45565b60405180910390fd5b62000277600083836200035560201b60201c565b80600260008282546200028b919062000f23565b92505081905550806000808473ffffffffffffffffffffffffffffffffffffffff1673ffffffffffffffffffffffffffffffffffffffff1681526020019081526020016000206000828254620002e2919062000f23565b925050819055508173ffffffffffffffffffffffffffffffffffffffff16600073ffffffffffffffffffffffffffffffffffffffff167fddf252ad1be2c89b69c2b068fc378daa952ba7f163c4a11628f55a4df523b3ef8360405162000349919062000e67565b60405180910390a35050565b6200036d8383836200053d60201b62000dce1760201c565b600073ffffffffffffffffffffffffffffffffffffffff168373ffffffffffffffffffffffffffffffffffffffff1614156200043857620003b3620001e860201b60201c565b73ffffffffffffffffffffffffffffffffffffffff16620003d96200054260201b60201c565b73ffffffffffffffffffffffffffffffffffffffff161462000432576040517f08c379a0000000000000000000000000000000000000000000000000000000008152600401620004299062000dbd565b60405180910390fd5b62000538565b600660009054906101000a900473ffffffffffffffffffffffffffffffffffffffff1673ffffffffffffffffffffffffffffffffffffffff1662000481620001e860201b60201c565b73ffffffffffffffffffffffffffffffffffffffff161415620004db576040517f08c379a0000000000000000000000000000000000000000000000000000000008152600401620004d29062000e23565b60405180910390fd5b6000620004ee846200056c60201b60201c565b90508181101562000536576040517f08c379a00000000000000000000000000000000000000000000000000000000081526004016200052d9062000e01565b60405180910390fd5b505b505050565b505050565b6000600560009054906101000a900473ffffffffffffffffffffffffffffffffffffffff16905090565b600080600960008473ffffffffffffffffffffffffffffffffffffffff1673ffffffffffffffffffffffffffffffffffffffff1681526020019081526020016000206040518060400160405290816000820154815260200160018201548152505090506000620005e2846200073960201b60201c565b90506000826000015111156200072e5760006200064183602001516200060d6200075860201b60201c565b6fffffffffffffffffffffffffffffffff166200062b919062001019565b60076200076060201b62000dd31790919060201c565b905060078054905081101562000722576000600882815481106200068e577f4e487b7100000000000000000000000000000000000000000000000000000000600052603260045260246000fd5b906000526020600020015490506000620006d6612710620006c2848860000151620008a460201b62000ef91790919060201c565b620008bc60201b62000f0f1790919060201c565b90506000620006f8828760000151620008d460201b62000f251790919060201c565b9050620007148186620008d460201b62000f251790919060201c565b965050505050505062000734565b81935050505062000734565b80925050505b919050565b60006200075182620008ec60201b62000f3b1760201c565b9050919050565b600042905090565b600080838054905014156200077957600090506200089e565b600080848054905090505b8082101562000817576000620007a683836200093460201b62000f831760201c565b905084868281548110620007e3577f4e487b7100000000000000000000000000000000000000000000000000000000600052603260045260246000fd5b90600052602060002001541115620007fe5780915062000810565b6001816200080d919062000f23565b92505b5062000784565b600082118015620008795750838560018462000834919062001019565b815481106200086c577f4e487b7100000000000000000000000000000000000000000000000000000000600052603260045260246000fd5b9060005260206000200154145b1562000898576001826200088e919062001019565b925050506200089e565b81925050505b92915050565b60008183620008b4919062000fb8565b905092915050565b60008183620008cc919062000f80565b905092915050565b60008183620008e4919062001019565b905092915050565b60008060008373ffffffffffffffffffffffffffffffffffffffff1673ffffffffffffffffffffffffffffffffffffffff168152602001908152602001600020549050919050565b60006002808362000946919062001134565b60028562000955919062001134565b62000961919062000f23565b6200096d919062000f80565b6002836200097c919062000f80565b6002856200098b919062000f80565b62000997919062000f23565b620009a3919062000f23565b905092915050565b828054620009b990620010c8565b90600052602060002090601f016020900481019282620009dd576000855562000a29565b82601f10620009f857805160ff191683800117855562000a29565b8280016001018555821562000a29579182015b8281111562000a2857825182559160200191906001019062000a0b565b5b50905062000a38919062000a8e565b5090565b82805482825590600052602060002090810192821562000a7b579160200282015b8281111562000a7a57825182559160200191906001019062000a5d565b5b50905062000a8a919062000a8e565b5090565b5b8082111562000aa957600081600090555060010162000a8f565b5090565b600062000ac462000abe8462000ead565b62000e84565b9050808382526020820190508285602086028201111562000ae457600080fd5b60005b8581101562000b18578162000afd888262000bd8565b84526020840193506020830192505060018101905062000ae7565b5050509392505050565b600062000b3962000b338462000edc565b62000e84565b90508281526020810184848401111562000b5257600080fd5b62000b5f84828562001092565b509392505050565b60008151905062000b7881620013c4565b92915050565b600082601f83011262000b9057600080fd5b815162000ba284826020860162000aad565b91505092915050565b600082601f83011262000bbd57600080fd5b815162000bcf84826020860162000b22565b91505092915050565b60008151905062000be981620013de565b92915050565b60008060008060008060c0878903121562000c0957600080fd5b600087015167ffffffffffffffff81111562000c2457600080fd5b62000c3289828a0162000bab565b965050602087015167ffffffffffffffff81111562000c5057600080fd5b62000c5e89828a0162000bab565b955050604062000c7189828a0162000b67565b945050606062000c8489828a0162000bd8565b935050608087015167ffffffffffffffff81111562000ca257600080fd5b62000cb089828a0162000b7e565b92505060a087015167ffffffffffffffff81111562000cce57600080fd5b62000cdc89828a0162000b7e565b9150509295509295509295565b600062000cf860328362000f12565b915062000d058262001239565b604082019050919050565b600062000d1f60468362000f12565b915062000d2c8262001288565b606082019050919050565b600062000d46602c8362000f12565b915062000d5382620012fd565b604082019050919050565b600062000d6d603f8362000f12565b915062000d7a826200134c565b604082019050919050565b600062000d94601f8362000f12565b915062000da1826200139b565b602082019050919050565b62000db78162001088565b82525050565b6000602082019050818103600083015262000dd88162000ce9565b9050919050565b6000602082019050818103600083015262000dfa8162000d10565b9050919050565b6000602082019050818103600083015262000e1c8162000d37565b9050919050565b6000602082019050818103600083015262000e3e8162000d5e565b9050919050565b6000602082019050818103600083015262000e608162000d85565b9050919050565b600060208201905062000e7e600083018462000dac565b92915050565b600062000e9062000ea3565b905062000e9e8282620010fe565b919050565b6000604051905090565b600067ffffffffffffffff82111562000ecb5762000eca620011f9565b5b602082029050602081019050919050565b600067ffffffffffffffff82111562000efa5762000ef9620011f9565b5b62000f058262001228565b9050602081019050919050565b600082825260208201905092915050565b600062000f308262001088565b915062000f3d8362001088565b9250827fffffffffffffffffffffffffffffffffffffffffffffffffffffffffffffffff0382111562000f755762000f746200116c565b5b828201905092915050565b600062000f8d8262001088565b915062000f9a8362001088565b92508262000fad5762000fac6200119b565b5b828204905092915050565b600062000fc58262001088565b915062000fd28362001088565b9250817fffffffffffffffffffffffffffffffffffffffffffffffffffffffffffffffff04831182151516156200100e576200100d6200116c565b5b828202905092915050565b6000620010268262001088565b9150620010338362001088565b9250828210156200104957620010486200116c565b5b828203905092915050565b6000620010618262001068565b9050919050565b600073ffffffffffffffffffffffffffffffffffffffff82169050919050565b6000819050919050565b60005b83811015620010b257808201518184015260208101905062001095565b83811115620010c2576000848401525b50505050565b60006002820490506001821680620010e157607f821691505b60208210811415620010f857620010f7620011ca565b5b50919050565b620011098262001228565b810181811067ffffffffffffffff821117156200112b576200112a620011f9565b5b80604052505050565b6000620011418262001088565b91506200114e8362001088565b9250826200116157620011606200119b565b5b828206905092915050565b7f4e487b7100000000000000000000000000000000000000000000000000000000600052601160045260246000fd5b7f4e487b7100000000000000000000000000000000000000000000000000000000600052601260045260246000fd5b7f4e487b7100000000000000000000000000000000000000000000000000000000600052602260045260246000fd5b7f4e487b7100000000000000000000000000000000000000000000000000000000600052604160045260246000fd5b6000601f19601f8301169050919050565b7f45524332305665737465643a204f6e6c79206f776e657220697320616c6c6f7760008201527f656420746f206d696e7420746f6b656e732e0000000000000000000000000000602082015250565b7f45524332305665737465643a204461746520617272617920616e64206261736960008201527f7320706f696e7473206172726179206861766520646966666572656e74206c6560208201527f6e677468732e0000000000000000000000000000000000000000000000000000604082015250565b7f45524332305665737465643a20416d6f756e74206578636565647320616d6f7560008201527f6e7420617661696c61626c650000000000000000000000000000000000000000602082015250565b7f45524332305665737465643a20496e697469616c206163636f756e742069732060008201527f6e6f7420616c6c6f77656420746f207472616e7366657220746f6b656e732e00602082015250565b7f45524332303a206d696e7420746f20746865207a65726f206164647265737300600082015250565b620013cf8162001054565b8114620013db57600080fd5b50565b620013e98162001088565b8114620013f557600080fd5b50565b6124ce80620014086000396000f3fe608060405234801561001057600080fd5b50600436106101165760003560e01c8063715018a6116100a2578063a457c2d711610071578063a457c2d7146102e5578063a9059cbb14610315578063b74e452b14610345578063dd62ed3e14610363578063f2fde38b1461039357610116565b8063715018a6146102815780638da5cb5b1461028b57806395d89b41146102a9578063a060ae18146102c757610116565b806323b872dd116100e957806323b872dd146101a3578063313ce567146101d357806339509351146101f15780634b0ee02a1461022157806370a082311461025157610116565b806306fdde031461011b578063095ea7b31461013957806314f7da8f1461016957806318160ddd14610185575b600080fd5b6101236103af565b6040516101309190611b7b565b60405180910390f35b610153600480360381019061014e919061186f565b610441565b6040516101609190611b60565b60405180910390f35b610183600480360381019061017e91906118ab565b61045f565b005b61018d610672565b60405161019a9190611d58565b60405180910390f35b6101bd60048036038101906101b89190611820565b61067c565b6040516101ca9190611b60565b60405180910390f35b6101db61077d565b6040516101e89190611d9c565b60405180910390f35b61020b6004803603810190610206919061186f565b610786565b6040516102189190611b60565b60405180910390f35b61023b600480360381019061023691906117bb565b610832565b6040516102489190611d58565b60405180910390f35b61026b600480360381019061026691906117bb565b610844565b6040516102789190611d58565b60405180910390f35b610289610856565b005b610293610993565b6040516102a09190611b45565b60405180910390f35b6102b16109bd565b6040516102be9190611b7b565b60405180910390f35b6102cf610a4f565b6040516102dc9190611d58565b60405180910390f35b6102ff60048036038101906102fa919061186f565b610a81565b60405161030c9190611b60565b60405180910390f35b61032f600480360381019061032a919061186f565b610b75565b60405161033c9190611b60565b60405180910390f35b61034d610b93565b60405161035a9190611d3d565b60405180910390f35b61037d600480360381019061037891906117e4565b610b9b565b60405161038a9190611d58565b60405180910390f35b6103ad60048036038101906103a891906117bb565b610c22565b005b6060600380546103be90611f8c565b80601f01602080910402602001604051908101604052809291908181526020018280546103ea90611f8c565b80156104375780601f1061040c57610100808354040283529160200191610437565b820191906000526020600020905b81548152906001019060200180831161041a57829003601f168201915b5050505050905090565b600061045561044e610fea565b8484610ff2565b6001905092915050565b610467610fea565b73ffffffffffffffffffffffffffffffffffffffff16610485610993565b73ffffffffffffffffffffffffffffffffffffffff16146104db576040517f08c379a00000000000000000000000000000000000000000000000000000000081526004016104d290611cbd565b60405180910390fd5b6000600960008573ffffffffffffffffffffffffffffffffffffffff1673ffffffffffffffffffffffffffffffffffffffff1681526020019081526020016000206040518060400160405290816000820154815260200160018201548152505090506000816000015114610584576040517f08c379a000000000000000000000000000000000000000000000000000000000815260040161057b90611c3d565b60405180910390fd5b604051806040016040528084815260200183815250600960008673ffffffffffffffffffffffffffffffffffffffff1673ffffffffffffffffffffffffffffffffffffffff16815260200190815260200160002060008201518160000155602082015181600101559050508373ffffffffffffffffffffffffffffffffffffffff167ff870f86d1eff0cf4fa95d14a2b2ae48a13568195fd90101457a4e41d1ec5982e8484604051610637929190611d73565b60405180910390a261066c600660009054906101000a900473ffffffffffffffffffffffffffffffffffffffff1685856111bd565b50505050565b6000600254905090565b60006106898484846111bd565b6000600160008673ffffffffffffffffffffffffffffffffffffffff1673ffffffffffffffffffffffffffffffffffffffff16815260200190815260200160002060006106d4610fea565b73ffffffffffffffffffffffffffffffffffffffff1673ffffffffffffffffffffffffffffffffffffffff16815260200190815260200160002054905082811015610754576040517f08c379a000000000000000000000000000000000000000000000000000000000815260040161074b90611c9d565b60405180910390fd5b61077185610760610fea565b858461076c9190611eb4565b610ff2565b60019150509392505050565b60006012905090565b6000610828610793610fea565b8484600160006107a1610fea565b73ffffffffffffffffffffffffffffffffffffffff1673ffffffffffffffffffffffffffffffffffffffff16815260200190815260200160002060008873ffffffffffffffffffffffffffffffffffffffff1673ffffffffffffffffffffffffffffffffffffffff168152602001908152602001600020546108239190611dd3565b610ff2565b6001905092915050565b600061083d8261143c565b9050919050565b600061084f8261144e565b9050919050565b61085e610fea565b73ffffffffffffffffffffffffffffffffffffffff1661087c610993565b73ffffffffffffffffffffffffffffffffffffffff16146108d2576040517f08c379a00000000000000000000000000000000000000000000000000000000081526004016108c990611cbd565b60405180910390fd5b600073ffffffffffffffffffffffffffffffffffffffff16600560009054906101000a900473ffffffffffffffffffffffffffffffffffffffff1673ffffffffffffffffffffffffffffffffffffffff167f8be0079c531659141344cd1fd0a4f28419497f9722a3daafe3b4186f6b6457e060405160405180910390a36000600560006101000a81548173ffffffffffffffffffffffffffffffffffffffff021916908373ffffffffffffffffffffffffffffffffffffffff160217905550565b6000600560009054906101000a900473ffffffffffffffffffffffffffffffffffffffff16905090565b6060600480546109cc90611f8c565b80601f01602080910402602001604051908101604052809291908181526020018280546109f890611f8c565b8015610a455780601f10610a1a57610100808354040283529160200191610a45565b820191906000526020600020905b815481529060010190602001808311610a2857829003601f168201915b5050505050905090565b6000610a7c600660009054906101000a900473ffffffffffffffffffffffffffffffffffffffff16610f3b565b905090565b60008060016000610a90610fea565b73ffffffffffffffffffffffffffffffffffffffff1673ffffffffffffffffffffffffffffffffffffffff16815260200190815260200160002060008573ffffffffffffffffffffffffffffffffffffffff1673ffffffffffffffffffffffffffffffffffffffff16815260200190815260200160002054905082811015610b4d576040517f08c379a0000000000000000000000000000000000000000000000000000000008152600401610b4490611d1d565b60405180910390fd5b610b6a610b58610fea565b858584610b659190611eb4565b610ff2565b600191505092915050565b6000610b89610b82610fea565b84846111bd565b6001905092915050565b600042905090565b6000600160008473ffffffffffffffffffffffffffffffffffffffff1673ffffffffffffffffffffffffffffffffffffffff16815260200190815260200160002060008373ffffffffffffffffffffffffffffffffffffffff1673ffffffffffffffffffffffffffffffffffffffff16815260200190815260200160002054905092915050565b610c2a610fea565b73ffffffffffffffffffffffffffffffffffffffff16610c48610993565b73ffffffffffffffffffffffffffffffffffffffff1614610c9e576040517f08c379a0000000000000000000000000000000000000000000000000000000008152600401610c9590611cbd565b60405180910390fd5b600073ffffffffffffffffffffffffffffffffffffffff168173ffffffffffffffffffffffffffffffffffffffff161415610d0e576040517f08c379a0000000000000000000000000000000000000000000000000000000008152600401610d0590611bdd565b60405180910390fd5b8073ffffffffffffffffffffffffffffffffffffffff16600560009054906101000a900473ffffffffffffffffffffffffffffffffffffffff1673ffffffffffffffffffffffffffffffffffffffff167f8be0079c531659141344cd1fd0a4f28419497f9722a3daafe3b4186f6b6457e060405160405180910390a380600560006101000a81548173ffffffffffffffffffffffffffffffffffffffff021916908373ffffffffffffffffffffffffffffffffffffffff16021790555050565b505050565b60008083805490501415610dea5760009050610ef3565b600080848054905090505b80821015610e74576000610e098383610f83565b905084868281548110610e45577f4e487b7100000000000000000000000000000000000000000000000000000000600052603260045260246000fd5b90600052602060002001541115610e5e57809150610e6e565b600181610e6b9190611dd3565b92505b50610df5565b600082118015610ed257508385600184610e8e9190611eb4565b81548110610ec5577f4e487b7100000000000000000000000000000000000000000000000000000000600052603260045260246000fd5b9060005260206000200154145b15610eed57600182610ee49190611eb4565b92505050610ef3565b81925050505b92915050565b60008183610f079190611e5a565b905092915050565b60008183610f1d9190611e29565b905092915050565b60008183610f339190611eb4565b905092915050565b60008060008373ffffffffffffffffffffffffffffffffffffffff1673ffffffffffffffffffffffffffffffffffffffff168152602001908152602001600020549050919050565b600060028083610f939190611fbe565b600285610fa09190611fbe565b610faa9190611dd3565b610fb49190611e29565b600283610fc19190611e29565b600285610fce9190611e29565b610fd89190611dd3565b610fe29190611dd3565b905092915050565b600033905090565b600073ffffffffffffffffffffffffffffffffffffffff168373ffffffffffffffffffffffffffffffffffffffff161415611062576040517f08c379a000000000000000000000000000000000000000000000000000000000815260040161105990611cfd565b60405180910390fd5b600073ffffffffffffffffffffffffffffffffffffffff168273ffffffffffffffffffffffffffffffffffffffff1614156110d2576040517f08c379a00000000000000000000000000000000000000000000000000000000081526004016110c990611bfd565b60405180910390fd5b80600160008573ffffffffffffffffffffffffffffffffffffffff1673ffffffffffffffffffffffffffffffffffffffff16815260200190815260200160002060008473ffffffffffffffffffffffffffffffffffffffff1673ffffffffffffffffffffffffffffffffffffffff168152602001908152602001600020819055508173ffffffffffffffffffffffffffffffffffffffff168373ffffffffffffffffffffffffffffffffffffffff167f8c5be1e5ebec7d5bd14f71427d1e84f3dd0314c0f7b2291e5b200ac8c7c3b925836040516111b09190611d58565b60405180910390a3505050565b600073ffffffffffffffffffffffffffffffffffffffff168373ffffffffffffffffffffffffffffffffffffffff16141561122d576040517f08c379a000000000000000000000000000000000000000000000000000000000815260040161122490611cdd565b60405180910390fd5b600073ffffffffffffffffffffffffffffffffffffffff168273ffffffffffffffffffffffffffffffffffffffff16141561129d576040517f08c379a000000000000000000000000000000000000000000000000000000000815260040161129490611b9d565b60405180910390fd5b6112a88383836115e1565b60008060008573ffffffffffffffffffffffffffffffffffffffff1673ffffffffffffffffffffffffffffffffffffffff1681526020019081526020016000205490508181101561132e576040517f08c379a000000000000000000000000000000000000000000000000000000000815260040161132590611c1d565b60405180910390fd5b818161133a9190611eb4565b6000808673ffffffffffffffffffffffffffffffffffffffff1673ffffffffffffffffffffffffffffffffffffffff16815260200190815260200160002081905550816000808573ffffffffffffffffffffffffffffffffffffffff1673ffffffffffffffffffffffffffffffffffffffff16815260200190815260200160002060008282546113ca9190611dd3565b925050819055508273ffffffffffffffffffffffffffffffffffffffff168473ffffffffffffffffffffffffffffffffffffffff167fddf252ad1be2c89b69c2b068fc378daa952ba7f163c4a11628f55a4df523b3ef8460405161142e9190611d58565b60405180910390a350505050565b600061144782610f3b565b9050919050565b600080600960008473ffffffffffffffffffffffffffffffffffffffff1673ffffffffffffffffffffffffffffffffffffffff16815260200190815260200160002060405180604001604052908160008201548152602001600182015481525050905060006114bc8461143c565b90506000826000015111156115d657600061150983602001516114dd610b93565b6fffffffffffffffffffffffffffffffff166114f99190611eb4565b6007610dd390919063ffffffff16565b90506007805490508110156115cb57600060088281548110611554577f4e487b7100000000000000000000000000000000000000000000000000000000600052603260045260246000fd5b90600052602060002001549050600061158e612710611580848860000151610ef990919063ffffffff16565b610f0f90919063ffffffff16565b905060006115a9828760000151610f2590919063ffffffff16565b90506115be8186610f2590919063ffffffff16565b96505050505050506115dc565b8193505050506115dc565b80925050505b919050565b6115ec838383610dce565b600073ffffffffffffffffffffffffffffffffffffffff168373ffffffffffffffffffffffffffffffffffffffff1614156116a257611629610fea565b73ffffffffffffffffffffffffffffffffffffffff16611647610993565b73ffffffffffffffffffffffffffffffffffffffff161461169d576040517f08c379a000000000000000000000000000000000000000000000000000000000815260040161169490611bbd565b60405180910390fd5b61178c565b600660009054906101000a900473ffffffffffffffffffffffffffffffffffffffff1673ffffffffffffffffffffffffffffffffffffffff166116e3610fea565b73ffffffffffffffffffffffffffffffffffffffff16141561173a576040517f08c379a000000000000000000000000000000000000000000000000000000000815260040161173190611c7d565b60405180910390fd5b60006117458461144e565b90508181101561178a576040517f08c379a000000000000000000000000000000000000000000000000000000000815260040161178190611c5d565b60405180910390fd5b505b505050565b6000813590506117a08161246a565b92915050565b6000813590506117b581612481565b92915050565b6000602082840312156117cd57600080fd5b60006117db84828501611791565b91505092915050565b600080604083850312156117f757600080fd5b600061180585828601611791565b925050602061181685828601611791565b9150509250929050565b60008060006060848603121561183557600080fd5b600061184386828701611791565b935050602061185486828701611791565b9250506040611865868287016117a6565b9150509250925092565b6000806040838503121561188257600080fd5b600061189085828601611791565b92505060206118a1858286016117a6565b9150509250929050565b6000806000606084860312156118c057600080fd5b60006118ce86828701611791565b93505060206118df868287016117a6565b92505060406118f0868287016117a6565b9150509250925092565b61190381611ee8565b82525050565b61191281611efa565b82525050565b600061192382611db7565b61192d8185611dc2565b935061193d818560208601611f59565b6119468161207c565b840191505092915050565b600061195e602383611dc2565b91506119698261208d565b604082019050919050565b6000611981603283611dc2565b915061198c826120dc565b604082019050919050565b60006119a4602683611dc2565b91506119af8261212b565b604082019050919050565b60006119c7602283611dc2565b91506119d28261217a565b604082019050919050565b60006119ea602683611dc2565b91506119f5826121c9565b604082019050919050565b6000611a0d602a83611dc2565b9150611a1882612218565b604082019050919050565b6000611a30602c83611dc2565b9150611a3b82612267565b604082019050919050565b6000611a53603f83611dc2565b9150611a5e826122b6565b604082019050919050565b6000611a76602883611dc2565b9150611a8182612305565b604082019050919050565b6000611a99602083611dc2565b9150611aa482612354565b602082019050919050565b6000611abc602583611dc2565b9150611ac78261237d565b604082019050919050565b6000611adf602483611dc2565b9150611aea826123cc565b604082019050919050565b6000611b02602583611dc2565b9150611b0d8261241b565b604082019050919050565b611b2181611f06565b82525050565b611b3081611f42565b82525050565b611b3f81611f4c565b82525050565b6000602082019050611b5a60008301846118fa565b92915050565b6000602082019050611b756000830184611909565b92915050565b60006020820190508181036000830152611b958184611918565b905092915050565b60006020820190508181036000830152611bb681611951565b9050919050565b60006020820190508181036000830152611bd681611974565b9050919050565b60006020820190508181036000830152611bf681611997565b9050919050565b60006020820190508181036000830152611c16816119ba565b9050919050565b60006020820190508181036000830152611c36816119dd565b9050919050565b60006020820190508181036000830152611c5681611a00565b9050919050565b60006020820190508181036000830152611c7681611a23565b9050919050565b60006020820190508181036000830152611c9681611a46565b9050919050565b60006020820190508181036000830152611cb681611a69565b9050919050565b60006020820190508181036000830152611cd681611a8c565b9050919050565b60006020820190508181036000830152611cf681611aaf565b9050919050565b60006020820190508181036000830152611d1681611ad2565b9050919050565b60006020820190508181036000830152611d3681611af5565b9050919050565b6000602082019050611d526000830184611b18565b92915050565b6000602082019050611d6d6000830184611b27565b92915050565b6000604082019050611d886000830185611b27565b611d956020830184611b27565b9392505050565b6000602082019050611db16000830184611b36565b92915050565b600081519050919050565b600082825260208201905092915050565b6000611dde82611f42565b9150611de983611f42565b9250827fffffffffffffffffffffffffffffffffffffffffffffffffffffffffffffffff03821115611e1e57611e1d611fef565b5b828201905092915050565b6000611e3482611f42565b9150611e3f83611f42565b925082611e4f57611e4e61201e565b5b828204905092915050565b6000611e6582611f42565b9150611e7083611f42565b9250817fffffffffffffffffffffffffffffffffffffffffffffffffffffffffffffffff0483118215151615611ea957611ea8611fef565b5b828202905092915050565b6000611ebf82611f42565b9150611eca83611f42565b925082821015611edd57611edc611fef565b5b828203905092915050565b6000611ef382611f22565b9050919050565b60008115159050919050565b60006fffffffffffffffffffffffffffffffff82169050919050565b600073ffffffffffffffffffffffffffffffffffffffff82169050919050565b6000819050919050565b600060ff82169050919050565b60005b83811015611f77578082015181840152602081019050611f5c565b83811115611f86576000848401525b50505050565b60006002820490506001821680611fa457607f821691505b60208210811415611fb857611fb761204d565b5b50919050565b6000611fc982611f42565b9150611fd483611f42565b925082611fe457611fe361201e565b5b828206905092915050565b7f4e487b7100000000000000000000000000000000000000000000000000000000600052601160045260246000fd5b7f4e487b7100000000000000000000000000000000000000000000000000000000600052601260045260246000fd5b7f4e487b7100000000000000000000000000000000000000000000000000000000600052602260045260246000fd5b6000601f19601f8301169050919050565b7f45524332303a207472616e7366657220746f20746865207a65726f206164647260008201527f6573730000000000000000000000000000000000000000000000000000000000602082015250565b7f45524332305665737465643a204f6e6c79206f776e657220697320616c6c6f7760008201527f656420746f206d696e7420746f6b656e732e0000000000000000000000000000602082015250565b7f4f776e61626c653a206e6577206f776e657220697320746865207a65726f206160008201527f6464726573730000000000000000000000000000000000000000000000000000602082015250565b7f45524332303a20617070726f766520746f20746865207a65726f20616464726560008201527f7373000000000000000000000000000000000000000000000000000000000000602082015250565b7f45524332303a207472616e7366657220616d6f756e742065786365656473206260008201527f616c616e63650000000000000000000000000000000000000000000000000000602082015250565b7f45524332305665737465643a20526563697069656e7420616c7265616479206860008201527f61732076657374696e6700000000000000000000000000000000000000000000602082015250565b7f45524332305665737465643a20416d6f756e74206578636565647320616d6f7560008201527f6e7420617661696c61626c650000000000000000000000000000000000000000602082015250565b7f45524332305665737465643a20496e697469616c206163636f756e742069732060008201527f6e6f7420616c6c6f77656420746f207472616e7366657220746f6b656e732e00602082015250565b7f45524332303a207472616e7366657220616d6f756e742065786365656473206160008201527f6c6c6f77616e6365000000000000000000000000000000000000000000000000602082015250565b7f4f776e61626c653a2063616c6c6572206973206e6f7420746865206f776e6572600082015250565b7f45524332303a207472616e736665722066726f6d20746865207a65726f20616460008201527f6472657373000000000000000000000000000000000000000000000000000000602082015250565b7f45524332303a20617070726f76652066726f6d20746865207a65726f2061646460008201527f7265737300000000000000000000000000000000000000000000000000000000602082015250565b7f45524332303a2064656372656173656420616c6c6f77616e63652062656c6f7760008201527f207a65726f000000000000000000000000000000000000000000000000000000602082015250565b61247381611ee8565b811461247e57600080fd5b50565b61248a81611f42565b811461249557600080fd5b5056fea26469706673582212207560f0bad31787b77a0c36f2a64736f8d7a63fedb335002997ba86fa6e98b6bf64736f6c63430008010033",
  "devdoc": {
    "kind": "dev",
    "methods": {
      "allowance(address,address)": {
        "details": "See {IERC20-allowance}."
      },
      "approve(address,uint256)": {
        "details": "See {IERC20-approve}. Requirements: - `spender` cannot be the zero address."
      },
      "balanceOf(address)": {
        "details": "See {IERC20-balanceOf}."
      },
      "decimals()": {
        "details": "Returns the number of decimals used to get its user representation. For example, if `decimals` equals `2`, a balance of `505` tokens should be displayed to a user as `5,05` (`505 / 10 ** 2`). Tokens usually opt for a value of 18, imitating the relationship between Ether and Wei. This is the value {ERC20} uses, unless this function is overloaded; NOTE: This information is only used for _display_ purposes: it in no way affects any of the arithmetic of the contract, including {IERC20-balanceOf} and {IERC20-transfer}."
      },
      "decreaseAllowance(address,uint256)": {
        "details": "Atomically decreases the allowance granted to `spender` by the caller. This is an alternative to {approve} that can be used as a mitigation for problems described in {IERC20-approve}. Emits an {Approval} event indicating the updated allowance. Requirements: - `spender` cannot be the zero address. - `spender` must have allowance for the caller of at least `subtractedValue`."
      },
      "increaseAllowance(address,uint256)": {
        "details": "Atomically increases the allowance granted to `spender` by the caller. This is an alternative to {approve} that can be used as a mitigation for problems described in {IERC20-approve}. Emits an {Approval} event indicating the updated allowance. Requirements: - `spender` cannot be the zero address."
      },
      "name()": {
        "details": "Returns the name of the token."
      },
      "owner()": {
        "details": "Returns the address of the current owner."
      },
      "renounceOwnership()": {
        "details": "Leaves the contract without owner. It will not be possible to call `onlyOwner` functions anymore. Can only be called by the current owner. NOTE: Renouncing ownership will leave the contract without an owner, thereby removing any functionality that is only available to the owner."
      },
      "symbol()": {
        "details": "Returns the symbol of the token, usually a shorter version of the name."
      },
      "totalSupply()": {
        "details": "See {IERC20-totalSupply}."
      },
      "transfer(address,uint256)": {
        "details": "See {IERC20-transfer}. Requirements: - `recipient` cannot be the zero address. - the caller must have a balance of at least `amount`."
      },
      "transferFrom(address,address,uint256)": {
        "details": "See {IERC20-transferFrom}. Emits an {Approval} event indicating the updated allowance. This is not required by the EIP. See the note at the beginning of {ERC20}. Requirements: - `sender` and `recipient` cannot be the zero address. - `sender` must have a balance of at least `amount`. - the caller must have allowance for ``sender``'s tokens of at least `amount`."
      },
      "transferOwnership(address)": {
        "details": "Transfers ownership of the contract to a new account (`newOwner`). Can only be called by the current owner."
      }
    },
    "version": 1
  },
  "userdoc": {
    "kind": "user",
    "methods": {},
    "version": 1
  },
  "storageLayout": {
    "storage": [
      {
        "astId": 852,
        "contract": "contracts/ERC20Vested.sol:ERC20Vested",
        "label": "_balances",
        "offset": 0,
        "slot": "0",
        "type": "t_mapping(t_address,t_uint256)"
      },
      {
        "astId": 858,
        "contract": "contracts/ERC20Vested.sol:ERC20Vested",
        "label": "_allowances",
        "offset": 0,
        "slot": "1",
        "type": "t_mapping(t_address,t_mapping(t_address,t_uint256))"
      },
      {
        "astId": 860,
        "contract": "contracts/ERC20Vested.sol:ERC20Vested",
        "label": "_totalSupply",
        "offset": 0,
        "slot": "2",
        "type": "t_uint256"
      },
      {
        "astId": 862,
        "contract": "contracts/ERC20Vested.sol:ERC20Vested",
        "label": "_name",
        "offset": 0,
        "slot": "3",
        "type": "t_string_storage"
      },
      {
        "astId": 864,
        "contract": "contracts/ERC20Vested.sol:ERC20Vested",
        "label": "_symbol",
        "offset": 0,
        "slot": "4",
        "type": "t_string_storage"
      },
      {
        "astId": 352,
        "contract": "contracts/ERC20Vested.sol:ERC20Vested",
        "label": "_owner",
        "offset": 0,
        "slot": "5",
        "type": "t_address"
      },
      {
        "astId": 35,
        "contract": "contracts/ERC20Vested.sol:ERC20Vested",
        "label": "_initialAccount",
        "offset": 0,
        "slot": "6",
        "type": "t_address"
      },
      {
        "astId": 38,
        "contract": "contracts/ERC20Vested.sol:ERC20Vested",
        "label": "_vestingDays",
        "offset": 0,
        "slot": "7",
        "type": "t_array(t_uint256)dyn_storage"
      },
      {
        "astId": 41,
        "contract": "contracts/ERC20Vested.sol:ERC20Vested",
        "label": "_vestingBasisPoints",
        "offset": 0,
        "slot": "8",
        "type": "t_array(t_uint256)dyn_storage"
      },
      {
        "astId": 46,
        "contract": "contracts/ERC20Vested.sol:ERC20Vested",
        "label": "_vesting",
        "offset": 0,
        "slot": "9",
        "type": "t_mapping(t_address,t_struct(vesting)26_storage)"
      }
    ],
    "types": {
      "t_address": {
        "encoding": "inplace",
        "label": "address",
        "numberOfBytes": "20"
      },
      "t_array(t_uint256)dyn_storage": {
        "base": "t_uint256",
        "encoding": "dynamic_array",
        "label": "uint256[]",
        "numberOfBytes": "32"
      },
      "t_mapping(t_address,t_mapping(t_address,t_uint256))": {
        "encoding": "mapping",
        "key": "t_address",
        "label": "mapping(address => mapping(address => uint256))",
        "numberOfBytes": "32",
        "value": "t_mapping(t_address,t_uint256)"
      },
      "t_mapping(t_address,t_struct(vesting)26_storage)": {
        "encoding": "mapping",
        "key": "t_address",
        "label": "mapping(address => struct ERC20Vested.vesting)",
        "numberOfBytes": "32",
        "value": "t_struct(vesting)26_storage"
      },
      "t_mapping(t_address,t_uint256)": {
        "encoding": "mapping",
        "key": "t_address",
        "label": "mapping(address => uint256)",
        "numberOfBytes": "32",
        "value": "t_uint256"
      },
      "t_string_storage": {
        "encoding": "bytes",
        "label": "string",
        "numberOfBytes": "32"
      },
      "t_struct(vesting)26_storage": {
        "encoding": "inplace",
        "label": "struct ERC20Vested.vesting",
        "members": [
          {
            "astId": 23,
            "contract": "contracts/ERC20Vested.sol:ERC20Vested",
            "label": "amount",
            "offset": 0,
            "slot": "0",
            "type": "t_uint256"
          },
          {
            "astId": 25,
            "contract": "contracts/ERC20Vested.sol:ERC20Vested",
            "label": "startDate",
            "offset": 0,
            "slot": "1",
            "type": "t_uint256"
          }
        ],
        "numberOfBytes": "64"
      },
      "t_uint256": {
        "encoding": "inplace",
        "label": "uint256",
        "numberOfBytes": "32"
      }
    }
  }
}