{
  "address": "0x5FbDB2315678afecb367f032d93F642f64180aa3",
  "abi": [
    {
      "inputs": [
        {
          "internalType": "string",
          "name": "name",
          "type": "string"
        },
        {
          "internalType": "string",
          "name": "symbol",
          "type": "string"
        },
        {
          "internalType": "uint256",
          "name": "totalSupply",
          "type": "uint256"
        },
        {
          "internalType": "uint256[]",
          "name": "vestingDays",
          "type": "uint256[]"
        },
        {
          "internalType": "uint256[]",
          "name": "vestingBasisPoints",
          "type": "uint256[]"
        }
      ],
      "stateMutability": "payable",
      "type": "constructor"
    },
    {
      "anonymous": false,
      "inputs": [
        {
          "indexed": true,
          "internalType": "address",
          "name": "owner",
          "type": "address"
        },
        {
          "indexed": true,
          "internalType": "address",
          "name": "spender",
          "type": "address"
        },
        {
          "indexed": false,
          "internalType": "uint256",
          "name": "value",
          "type": "uint256"
        }
      ],
      "name": "Approval",
      "type": "event"
    },
    {
      "anonymous": false,
      "inputs": [
        {
          "indexed": true,
          "internalType": "address",
          "name": "previousOwner",
          "type": "address"
        },
        {
          "indexed": true,
          "internalType": "address",
          "name": "newOwner",
          "type": "address"
        }
      ],
      "name": "OwnershipTransferred",
      "type": "event"
    },
    {
      "anonymous": false,
      "inputs": [
        {
          "indexed": true,
          "internalType": "address",
          "name": "from",
          "type": "address"
        },
        {
          "indexed": true,
          "internalType": "address",
          "name": "to",
          "type": "address"
        },
        {
          "indexed": false,
          "internalType": "uint256",
          "name": "value",
          "type": "uint256"
        }
      ],
      "name": "Transfer",
      "type": "event"
    },
    {
      "anonymous": false,
      "inputs": [
        {
          "indexed": true,
          "internalType": "address",
          "name": "recipient",
          "type": "address"
        },
        {
          "indexed": false,
          "internalType": "uint256",
          "name": "value",
          "type": "uint256"
        },
        {
          "indexed": false,
          "internalType": "uint256",
          "name": "startDate",
          "type": "uint256"
        }
      ],
      "name": "Vesting",
      "type": "event"
    },
    {
      "inputs": [
        {
          "internalType": "address",
          "name": "owner",
          "type": "address"
        },
        {
          "internalType": "address",
          "name": "spender",
          "type": "address"
        }
      ],
      "name": "allowance",
      "outputs": [
        {
          "internalType": "uint256",
          "name": "",
          "type": "uint256"
        }
      ],
      "stateMutability": "view",
      "type": "function"
    },
    {
      "inputs": [
        {
          "internalType": "address",
          "name": "spender",
          "type": "address"
        },
        {
          "internalType": "uint256",
          "name": "amount",
          "type": "uint256"
        }
      ],
      "name": "approve",
      "outputs": [
        {
          "internalType": "bool",
          "name": "",
          "type": "bool"
        }
      ],
      "stateMutability": "nonpayable",
      "type": "function"
    },
    {
      "inputs": [
        {
          "internalType": "address",
          "name": "account",
          "type": "address"
        }
      ],
      "name": "balanceOf",
      "outputs": [
        {
          "internalType": "uint256",
          "name": "",
          "type": "uint256"
        }
      ],
      "stateMutability": "view",
      "type": "function"
    },
    {
      "inputs": [],
      "name": "decimals",
      "outputs": [
        {
          "internalType": "uint8",
          "name": "",
          "type": "uint8"
        }
      ],
      "stateMutability": "view",
      "type": "function"
    },
    {
      "inputs": [
        {
          "internalType": "address",
          "name": "spender",
          "type": "address"
        },
        {
          "internalType": "uint256",
          "name": "subtractedValue",
          "type": "uint256"
        }
      ],
      "name": "decreaseAllowance",
      "outputs": [
        {
          "internalType": "bool",
          "name": "",
          "type": "bool"
        }
      ],
      "stateMutability": "nonpayable",
      "type": "function"
    },
    {
      "inputs": [
        {
          "internalType": "address",
          "name": "spender",
          "type": "address"
        },
        {
          "internalType": "uint256",
          "name": "addedValue",
          "type": "uint256"
        }
      ],
      "name": "increaseAllowance",
      "outputs": [
        {
          "internalType": "bool",
          "name": "",
          "type": "bool"
        }
      ],
      "stateMutability": "nonpayable",
      "type": "function"
    },
    {
      "inputs": [],
      "name": "name",
      "outputs": [
        {
          "internalType": "string",
          "name": "",
          "type": "string"
        }
      ],
      "stateMutability": "view",
      "type": "function"
    },
    {
      "inputs": [],
      "name": "owner",
      "outputs": [
        {
          "internalType": "address",
          "name": "",
          "type": "address"
        }
      ],
      "stateMutability": "view",
      "type": "function"
    },
    {
      "inputs": [],
      "name": "renounceOwnership",
      "outputs": [],
      "stateMutability": "nonpayable",
      "type": "function"
    },
    {
      "inputs": [],
      "name": "symbol",
      "outputs": [
        {
          "internalType": "string",
          "name": "",
          "type": "string"
        }
      ],
      "stateMutability": "view",
      "type": "function"
    },
    {
      "inputs": [],
      "name": "today",
      "outputs": [
        {
          "internalType": "uint128",
          "name": "",
          "type": "uint128"
        }
      ],
      "stateMutability": "view",
      "type": "function"
    },
    {
      "inputs": [
        {
          "internalType": "address",
          "name": "account",
          "type": "address"
        }
      ],
      "name": "totalBalanceOf",
      "outputs": [
        {
          "internalType": "uint256",
          "name": "",
          "type": "uint256"
        }
      ],
      "stateMutability": "view",
      "type": "function"
    },
    {
      "inputs": [],
      "name": "totalSupply",
      "outputs": [
        {
          "internalType": "uint256",
          "name": "",
          "type": "uint256"
        }
      ],
      "stateMutability": "view",
      "type": "function"
    },
    {
      "inputs": [
        {
          "internalType": "address",
          "name": "recipient",
          "type": "address"
        },
        {
          "internalType": "uint256",
          "name": "amount",
          "type": "uint256"
        }
      ],
      "name": "transfer",
      "outputs": [
        {
          "internalType": "bool",
          "name": "",
          "type": "bool"
        }
      ],
      "stateMutability": "nonpayable",
      "type": "function"
    },
    {
      "inputs": [
        {
          "internalType": "address",
          "name": "sender",
          "type": "address"
        },
        {
          "internalType": "address",
          "name": "recipient",
          "type": "address"
        },
        {
          "internalType": "uint256",
          "name": "amount",
          "type": "uint256"
        }
      ],
      "name": "transferFrom",
      "outputs": [
        {
          "internalType": "bool",
          "name": "",
          "type": "bool"
        }
      ],
      "stateMutability": "nonpayable",
      "type": "function"
    },
    {
      "inputs": [
        {
          "internalType": "address",
          "name": "newOwner",
          "type": "address"
        }
      ],
      "name": "transferOwnership",
      "outputs": [],
      "stateMutability": "nonpayable",
      "type": "function"
    },
    {
      "inputs": [
        {
          "internalType": "address",
          "name": "recipient",
          "type": "address"
        },
        {
          "internalType": "uint256",
          "name": "amount",
          "type": "uint256"
        },
        {
          "internalType": "uint256",
          "name": "startDate",
          "type": "uint256"
        }
      ],
      "name": "transferVested",
      "outputs": [],
      "stateMutability": "nonpayable",
      "type": "function"
    }
  ],
  "transactionHash": "0x6e93bd0872edb29d4fe1286d13cc4c338a9f7bc63b02c66ed38240c69c645c9f",
  "args": [
    "Mondo Community Coin",
    "MNDCC",
    "180000000000000000000000000",
    [
      2592000,
      5184000,
      7776000,
      10368000,
      12960000,
      15552000,
      18144000,
      20736000,
      23328000,
      25920000,
      28512000,
      31104000,
      33696000,
      36288000,
      38880000,
      41472000,
      44064000,
      46656000,
      49248000,
      51840000,
      54432000,
      57024000,
      59616000,
      62208000,
      64800000,
      67392000,
      69984000,
      72576000,
      75168000
    ],
    [
      50,
      100,
      150,
      200,
      250,
      300,
      350,
      400,
      450,
      500,
      550,
      600,
      650,
      700,
      750,
      800,
      850,
      900,
      950,
      1000,
      2000,
      3000,
      4000,
      5000,
      6000,
      7000,
      8000,
      9000,
      10000
    ]
  ],
  "solcInputHash": "cfb29e9abfd0675c7e6081b7707521b8",
  "bytecode": "0x6080604052604051620038f6380380620038f6833981810160405281019062000029919062000b02565b8484816003908051906020019062000043929190620008d5565b5080600490805190602001906200005c929190620008d5565b505050600062000071620001b560201b60201c565b905080600560006101000a81548173ffffffffffffffffffffffffffffffffffffffff021916908373ffffffffffffffffffffffffffffffffffffffff1602179055508073ffffffffffffffffffffffffffffffffffffffff16600073ffffffffffffffffffffffffffffffffffffffff167f8be0079c531659141344cd1fd0a4f28419497f9722a3daafe3b4186f6b6457e060405160405180910390a350805182511462000157576040517f08c379a00000000000000000000000000000000000000000000000000000000081526004016200014e9062000cb7565b60405180910390fd5b620001786200016b620001bd60201b60201c565b84620001e760201b60201c565b81600690805190602001906200019092919062000966565b508060079080519060200190620001a992919062000966565b50505050505062001211565b600033905090565b6000600560009054906101000a900473ffffffffffffffffffffffffffffffffffffffff16905090565b600073ffffffffffffffffffffffffffffffffffffffff168273ffffffffffffffffffffffffffffffffffffffff1614156200025a576040517f08c379a0000000000000000000000000000000000000000000000000000000008152600401620002519062000cfb565b60405180910390fd5b6200026e600083836200034c60201b60201c565b806002600082825462000282919062000dd9565b92505081905550806000808473ffffffffffffffffffffffffffffffffffffffff1673ffffffffffffffffffffffffffffffffffffffff1681526020019081526020016000206000828254620002d9919062000dd9565b925050819055508173ffffffffffffffffffffffffffffffffffffffff16600073ffffffffffffffffffffffffffffffffffffffff167fddf252ad1be2c89b69c2b068fc378daa952ba7f163c4a11628f55a4df523b3ef8360405162000340919062000d1d565b60405180910390a35050565b620003648383836200049160201b62000d4f1760201c565b600073ffffffffffffffffffffffffffffffffffffffff168373ffffffffffffffffffffffffffffffffffffffff1614156200042f57620003aa620001b560201b60201c565b73ffffffffffffffffffffffffffffffffffffffff16620003d0620001bd60201b60201c565b73ffffffffffffffffffffffffffffffffffffffff161462000429576040517f08c379a0000000000000000000000000000000000000000000000000000000008152600401620004209062000c95565b60405180910390fd5b6200048c565b600062000442846200049660201b60201c565b9050818110156200048a576040517f08c379a0000000000000000000000000000000000000000000000000000000008152600401620004819062000cd9565b60405180910390fd5b505b505050565b505050565b600080600860008473ffffffffffffffffffffffffffffffffffffffff1673ffffffffffffffffffffffffffffffffffffffff16815260200190815260200160002060405180604001604052908160008201548152602001600182015481525050905060006200050c846200066360201b60201c565b9050600082600001511115620006585760006200056b8360200151620005376200068260201b60201c565b6fffffffffffffffffffffffffffffffff1662000555919062000ecf565b60066200068a60201b62000d541790919060201c565b90506006805490508110156200064c57600060078281548110620005b8577f4e487b7100000000000000000000000000000000000000000000000000000000600052603260045260246000fd5b90600052602060002001549050600062000600612710620005ec848860000151620007ce60201b62000e7a1790919060201c565b620007e660201b62000e901790919060201c565b9050600062000622828760000151620007fe60201b62000ea61790919060201c565b90506200063e8186620007fe60201b62000ea61790919060201c565b96505050505050506200065e565b8193505050506200065e565b80925050505b919050565b60006200067b826200081660201b62000ebc1760201c565b9050919050565b600042905090565b60008083805490501415620006a35760009050620007c8565b600080848054905090505b8082101562000741576000620006d083836200085e60201b62000f041760201c565b9050848682815481106200070d577f4e487b7100000000000000000000000000000000000000000000000000000000600052603260045260246000fd5b9060005260206000200154111562000728578091506200073a565b60018162000737919062000dd9565b92505b50620006ae565b600082118015620007a3575083856001846200075e919062000ecf565b8154811062000796577f4e487b7100000000000000000000000000000000000000000000000000000000600052603260045260246000fd5b9060005260206000200154145b15620007c257600182620007b8919062000ecf565b92505050620007c8565b81925050505b92915050565b60008183620007de919062000e6e565b905092915050565b60008183620007f6919062000e36565b905092915050565b600081836200080e919062000ecf565b905092915050565b60008060008373ffffffffffffffffffffffffffffffffffffffff1673ffffffffffffffffffffffffffffffffffffffff168152602001908152602001600020549050919050565b60006002808362000870919062000fb6565b6002856200087f919062000fb6565b6200088b919062000dd9565b62000897919062000e36565b600283620008a6919062000e36565b600285620008b5919062000e36565b620008c1919062000dd9565b620008cd919062000dd9565b905092915050565b828054620008e39062000f4a565b90600052602060002090601f01602090048101928262000907576000855562000953565b82601f106200092257805160ff191683800117855562000953565b8280016001018555821562000953579182015b828111156200095257825182559160200191906001019062000935565b5b509050620009629190620009b8565b5090565b828054828255906000526020600020908101928215620009a5579160200282015b82811115620009a457825182559160200191906001019062000987565b5b509050620009b49190620009b8565b5090565b5b80821115620009d3576000816000905550600101620009b9565b5090565b6000620009ee620009e88462000d63565b62000d3a565b9050808382526020820190508285602086028201111562000a0e57600080fd5b60005b8581101562000a42578162000a27888262000aeb565b84526020840193506020830192505060018101905062000a11565b5050509392505050565b600062000a6362000a5d8462000d92565b62000d3a565b90508281526020810184848401111562000a7c57600080fd5b62000a8984828562000f14565b509392505050565b600082601f83011262000aa357600080fd5b815162000ab5848260208601620009d7565b91505092915050565b600082601f83011262000ad057600080fd5b815162000ae284826020860162000a4c565b91505092915050565b60008151905062000afc81620011f7565b92915050565b600080600080600060a0868803121562000b1b57600080fd5b600086015167ffffffffffffffff81111562000b3657600080fd5b62000b448882890162000abe565b955050602086015167ffffffffffffffff81111562000b6257600080fd5b62000b708882890162000abe565b945050604062000b838882890162000aeb565b935050606086015167ffffffffffffffff81111562000ba157600080fd5b62000baf8882890162000a91565b925050608086015167ffffffffffffffff81111562000bcd57600080fd5b62000bdb8882890162000a91565b9150509295509295909350565b600062000bf760328362000dc8565b915062000c0482620010bb565b604082019050919050565b600062000c1e60468362000dc8565b915062000c2b826200110a565b606082019050919050565b600062000c45602c8362000dc8565b915062000c52826200117f565b604082019050919050565b600062000c6c601f8362000dc8565b915062000c7982620011ce565b602082019050919050565b62000c8f8162000f0a565b82525050565b6000602082019050818103600083015262000cb08162000be8565b9050919050565b6000602082019050818103600083015262000cd28162000c0f565b9050919050565b6000602082019050818103600083015262000cf48162000c36565b9050919050565b6000602082019050818103600083015262000d168162000c5d565b9050919050565b600060208201905062000d34600083018462000c84565b92915050565b600062000d4662000d59565b905062000d54828262000f80565b919050565b6000604051905090565b600067ffffffffffffffff82111562000d815762000d806200107b565b5b602082029050602081019050919050565b600067ffffffffffffffff82111562000db05762000daf6200107b565b5b62000dbb82620010aa565b9050602081019050919050565b600082825260208201905092915050565b600062000de68262000f0a565b915062000df38362000f0a565b9250827fffffffffffffffffffffffffffffffffffffffffffffffffffffffffffffffff0382111562000e2b5762000e2a62000fee565b5b828201905092915050565b600062000e438262000f0a565b915062000e508362000f0a565b92508262000e635762000e626200101d565b5b828204905092915050565b600062000e7b8262000f0a565b915062000e888362000f0a565b9250817fffffffffffffffffffffffffffffffffffffffffffffffffffffffffffffffff048311821515161562000ec45762000ec362000fee565b5b828202905092915050565b600062000edc8262000f0a565b915062000ee98362000f0a565b92508282101562000eff5762000efe62000fee565b5b828203905092915050565b6000819050919050565b60005b8381101562000f3457808201518184015260208101905062000f17565b8381111562000f44576000848401525b50505050565b6000600282049050600182168062000f6357607f821691505b6020821081141562000f7a5762000f796200104c565b5b50919050565b62000f8b82620010aa565b810181811067ffffffffffffffff8211171562000fad5762000fac6200107b565b5b80604052505050565b600062000fc38262000f0a565b915062000fd08362000f0a565b92508262000fe35762000fe26200101d565b5b828206905092915050565b7f4e487b7100000000000000000000000000000000000000000000000000000000600052601160045260246000fd5b7f4e487b7100000000000000000000000000000000000000000000000000000000600052601260045260246000fd5b7f4e487b7100000000000000000000000000000000000000000000000000000000600052602260045260246000fd5b7f4e487b7100000000000000000000000000000000000000000000000000000000600052604160045260246000fd5b6000601f19601f8301169050919050565b7f45524332305665737465643a204f6e6c79206f776e657220697320616c6c6f7760008201527f656420746f206d696e7420746f6b656e732e0000000000000000000000000000602082015250565b7f45524332305665737465643a204461746520617272617920616e64206261736960008201527f7320706f696e7473206172726179206861766520646966666572656e74206c6560208201527f6e677468732e0000000000000000000000000000000000000000000000000000604082015250565b7f45524332305665737465643a20416d6f756e74206578636565647320616d6f7560008201527f6e7420617661696c61626c650000000000000000000000000000000000000000602082015250565b7f45524332303a206d696e7420746f20746865207a65726f206164647265737300600082015250565b620012028162000f0a565b81146200120e57600080fd5b50565b6126d580620012216000396000f3fe608060405234801561001057600080fd5b506004361061010b5760003560e01c806370a08231116100a2578063a457c2d711610071578063a457c2d7146102bc578063a9059cbb146102ec578063b74e452b1461031c578063dd62ed3e1461033a578063f2fde38b1461036a5761010b565b806370a0823114610246578063715018a6146102765780638da5cb5b1461028057806395d89b411461029e5761010b565b806323b872dd116100de57806323b872dd14610198578063313ce567146101c857806339509351146101e65780634b0ee02a146102165761010b565b806306fdde0314610110578063095ea7b31461012e57806314f7da8f1461015e57806318160ddd1461017a575b600080fd5b610118610386565b6040516101259190611ca4565b60405180910390f35b61014860048036038101906101439190611952565b610418565b6040516101559190611c89565b60405180910390f35b6101786004803603810190610173919061198e565b610436565b005b6101826106e6565b60405161018f9190611ec1565b60405180910390f35b6101b260048036038101906101ad9190611903565b6106f0565b6040516101bf9190611c89565b60405180910390f35b6101d06107f1565b6040516101dd9190611f05565b60405180910390f35b61020060048036038101906101fb9190611952565b6107fa565b60405161020d9190611c89565b60405180910390f35b610230600480360381019061022b919061189e565b6108a6565b60405161023d9190611ec1565b60405180910390f35b610260600480360381019061025b919061189e565b6108b8565b60405161026d9190611ec1565b60405180910390f35b61027e6108ca565b005b610288610a07565b6040516102959190611c6e565b60405180910390f35b6102a6610a31565b6040516102b39190611ca4565b60405180910390f35b6102d660048036038101906102d19190611952565b610ac3565b6040516102e39190611c89565b60405180910390f35b61030660048036038101906103019190611952565b610bb7565b6040516103139190611c89565b60405180910390f35b610324610bd5565b6040516103319190611ea6565b60405180910390f35b610354600480360381019061034f91906118c7565b610bdd565b6040516103619190611ec1565b60405180910390f35b610384600480360381019061037f919061189e565b610c64565b005b606060038054610395906120f5565b80601f01602080910402602001604051908101604052809291908181526020018280546103c1906120f5565b801561040e5780601f106103e35761010080835404028352916020019161040e565b820191906000526020600020905b8154815290600101906020018083116103f157829003601f168201915b5050505050905090565b600061042c610425610f6b565b8484610f73565b6001905092915050565b61043e610f6b565b73ffffffffffffffffffffffffffffffffffffffff1661045c610a07565b73ffffffffffffffffffffffffffffffffffffffff16146104b2576040517f08c379a00000000000000000000000000000000000000000000000000000000081526004016104a990611e06565b60405180910390fd5b6000600860008573ffffffffffffffffffffffffffffffffffffffff1673ffffffffffffffffffffffffffffffffffffffff168152602001908152602001600020604051806040016040529081600082015481526020016001820154815250509050600061051e610a07565b905060008411610563576040517f08c379a000000000000000000000000000000000000000000000000000000000815260040161055a90611e66565b60405180910390fd5b60008260000151146105aa576040517f08c379a00000000000000000000000000000000000000000000000000000000081526004016105a190611dc6565b60405180910390fd5b8073ffffffffffffffffffffffffffffffffffffffff168573ffffffffffffffffffffffffffffffffffffffff161415610619576040517f08c379a000000000000000000000000000000000000000000000000000000000815260040161061090611d66565b60405180910390fd5b604051806040016040528085815260200184815250600860008773ffffffffffffffffffffffffffffffffffffffff1673ffffffffffffffffffffffffffffffffffffffff16815260200190815260200160002060008201518160000155602082015181600101559050508473ffffffffffffffffffffffffffffffffffffffff167ff870f86d1eff0cf4fa95d14a2b2ae48a13568195fd90101457a4e41d1ec5982e85856040516106cc929190611edc565b60405180910390a26106df81868661113e565b5050505050565b6000600254905090565b60006106fd84848461113e565b6000600160008673ffffffffffffffffffffffffffffffffffffffff1673ffffffffffffffffffffffffffffffffffffffff1681526020019081526020016000206000610748610f6b565b73ffffffffffffffffffffffffffffffffffffffff1673ffffffffffffffffffffffffffffffffffffffff168152602001908152602001600020549050828110156107c8576040517f08c379a00000000000000000000000000000000000000000000000000000000081526004016107bf90611de6565b60405180910390fd5b6107e5856107d4610f6b565b85846107e0919061201d565b610f73565b60019150509392505050565b60006012905090565b600061089c610807610f6b565b848460016000610815610f6b565b73ffffffffffffffffffffffffffffffffffffffff1673ffffffffffffffffffffffffffffffffffffffff16815260200190815260200160002060008873ffffffffffffffffffffffffffffffffffffffff1673ffffffffffffffffffffffffffffffffffffffff168152602001908152602001600020546108979190611f3c565b610f73565b6001905092915050565b60006108b1826113bd565b9050919050565b60006108c3826113cf565b9050919050565b6108d2610f6b565b73ffffffffffffffffffffffffffffffffffffffff166108f0610a07565b73ffffffffffffffffffffffffffffffffffffffff1614610946576040517f08c379a000000000000000000000000000000000000000000000000000000000815260040161093d90611e06565b60405180910390fd5b600073ffffffffffffffffffffffffffffffffffffffff16600560009054906101000a900473ffffffffffffffffffffffffffffffffffffffff1673ffffffffffffffffffffffffffffffffffffffff167f8be0079c531659141344cd1fd0a4f28419497f9722a3daafe3b4186f6b6457e060405160405180910390a36000600560006101000a81548173ffffffffffffffffffffffffffffffffffffffff021916908373ffffffffffffffffffffffffffffffffffffffff160217905550565b6000600560009054906101000a900473ffffffffffffffffffffffffffffffffffffffff16905090565b606060048054610a40906120f5565b80601f0160208091040260200160405190810160405280929190818152602001828054610a6c906120f5565b8015610ab95780601f10610a8e57610100808354040283529160200191610ab9565b820191906000526020600020905b815481529060010190602001808311610a9c57829003601f168201915b5050505050905090565b60008060016000610ad2610f6b565b73ffffffffffffffffffffffffffffffffffffffff1673ffffffffffffffffffffffffffffffffffffffff16815260200190815260200160002060008573ffffffffffffffffffffffffffffffffffffffff1673ffffffffffffffffffffffffffffffffffffffff16815260200190815260200160002054905082811015610b8f576040517f08c379a0000000000000000000000000000000000000000000000000000000008152600401610b8690611e86565b60405180910390fd5b610bac610b9a610f6b565b858584610ba7919061201d565b610f73565b600191505092915050565b6000610bcb610bc4610f6b565b848461113e565b6001905092915050565b600042905090565b6000600160008473ffffffffffffffffffffffffffffffffffffffff1673ffffffffffffffffffffffffffffffffffffffff16815260200190815260200160002060008373ffffffffffffffffffffffffffffffffffffffff1673ffffffffffffffffffffffffffffffffffffffff16815260200190815260200160002054905092915050565b610c6c610f6b565b73ffffffffffffffffffffffffffffffffffffffff16610c8a610a07565b73ffffffffffffffffffffffffffffffffffffffff1614610ce0576040517f08c379a0000000000000000000000000000000000000000000000000000000008152600401610cd790611e06565b60405180910390fd5b610ce981611562565b15610d29576040517f08c379a0000000000000000000000000000000000000000000000000000000008152600401610d2090611ce6565b60405180910390fd5b610d32816115b0565b610d4b81610d46610d41610f6b565b6108b8565b610bb7565b5050565b505050565b60008083805490501415610d6b5760009050610e74565b600080848054905090505b80821015610df5576000610d8a8383610f04565b905084868281548110610dc6577f4e487b7100000000000000000000000000000000000000000000000000000000600052603260045260246000fd5b90600052602060002001541115610ddf57809150610def565b600181610dec9190611f3c565b92505b50610d76565b600082118015610e5357508385600184610e0f919061201d565b81548110610e46577f4e487b7100000000000000000000000000000000000000000000000000000000600052603260045260246000fd5b9060005260206000200154145b15610e6e57600182610e65919061201d565b92505050610e74565b81925050505b92915050565b60008183610e889190611fc3565b905092915050565b60008183610e9e9190611f92565b905092915050565b60008183610eb4919061201d565b905092915050565b60008060008373ffffffffffffffffffffffffffffffffffffffff1673ffffffffffffffffffffffffffffffffffffffff168152602001908152602001600020549050919050565b600060028083610f149190612127565b600285610f219190612127565b610f2b9190611f3c565b610f359190611f92565b600283610f429190611f92565b600285610f4f9190611f92565b610f599190611f3c565b610f639190611f3c565b905092915050565b600033905090565b600073ffffffffffffffffffffffffffffffffffffffff168373ffffffffffffffffffffffffffffffffffffffff161415610fe3576040517f08c379a0000000000000000000000000000000000000000000000000000000008152600401610fda90611e46565b60405180910390fd5b600073ffffffffffffffffffffffffffffffffffffffff168273ffffffffffffffffffffffffffffffffffffffff161415611053576040517f08c379a000000000000000000000000000000000000000000000000000000000815260040161104a90611d46565b60405180910390fd5b80600160008573ffffffffffffffffffffffffffffffffffffffff1673ffffffffffffffffffffffffffffffffffffffff16815260200190815260200160002060008473ffffffffffffffffffffffffffffffffffffffff1673ffffffffffffffffffffffffffffffffffffffff168152602001908152602001600020819055508173ffffffffffffffffffffffffffffffffffffffff168373ffffffffffffffffffffffffffffffffffffffff167f8c5be1e5ebec7d5bd14f71427d1e84f3dd0314c0f7b2291e5b200ac8c7c3b925836040516111319190611ec1565b60405180910390a3505050565b600073ffffffffffffffffffffffffffffffffffffffff168373ffffffffffffffffffffffffffffffffffffffff1614156111ae576040517f08c379a00000000000000000000000000000000000000000000000000000000081526004016111a590611e26565b60405180910390fd5b600073ffffffffffffffffffffffffffffffffffffffff168273ffffffffffffffffffffffffffffffffffffffff16141561121e576040517f08c379a000000000000000000000000000000000000000000000000000000000815260040161121590611cc6565b60405180910390fd5b61122983838361175c565b60008060008573ffffffffffffffffffffffffffffffffffffffff1673ffffffffffffffffffffffffffffffffffffffff168152602001908152602001600020549050818110156112af576040517f08c379a00000000000000000000000000000000000000000000000000000000081526004016112a690611d86565b60405180910390fd5b81816112bb919061201d565b6000808673ffffffffffffffffffffffffffffffffffffffff1673ffffffffffffffffffffffffffffffffffffffff16815260200190815260200160002081905550816000808573ffffffffffffffffffffffffffffffffffffffff1673ffffffffffffffffffffffffffffffffffffffff168152602001908152602001600020600082825461134b9190611f3c565b925050819055508273ffffffffffffffffffffffffffffffffffffffff168473ffffffffffffffffffffffffffffffffffffffff167fddf252ad1be2c89b69c2b068fc378daa952ba7f163c4a11628f55a4df523b3ef846040516113af9190611ec1565b60405180910390a350505050565b60006113c882610ebc565b9050919050565b600080600860008473ffffffffffffffffffffffffffffffffffffffff1673ffffffffffffffffffffffffffffffffffffffff168152602001908152602001600020604051806040016040529081600082015481526020016001820154815250509050600061143d846113bd565b905060008260000151111561155757600061148a836020015161145e610bd5565b6fffffffffffffffffffffffffffffffff1661147a919061201d565b6006610d5490919063ffffffff16565b905060068054905081101561154c576000600782815481106114d5577f4e487b7100000000000000000000000000000000000000000000000000000000600052603260045260246000fd5b90600052602060002001549050600061150f612710611501848860000151610e7a90919063ffffffff16565b610e9090919063ffffffff16565b9050600061152a828760000151610ea690919063ffffffff16565b905061153f8186610ea690919063ffffffff16565b965050505050505061155d565b81935050505061155d565b80925050505b919050565b600080600860008473ffffffffffffffffffffffffffffffffffffffff1673ffffffffffffffffffffffffffffffffffffffff16815260200190815260200160002060000154119050919050565b6115b8610f6b565b73ffffffffffffffffffffffffffffffffffffffff166115d6610a07565b73ffffffffffffffffffffffffffffffffffffffff161461162c576040517f08c379a000000000000000000000000000000000000000000000000000000000815260040161162390611e06565b60405180910390fd5b600073ffffffffffffffffffffffffffffffffffffffff168173ffffffffffffffffffffffffffffffffffffffff16141561169c576040517f08c379a000000000000000000000000000000000000000000000000000000000815260040161169390611d26565b60405180910390fd5b8073ffffffffffffffffffffffffffffffffffffffff16600560009054906101000a900473ffffffffffffffffffffffffffffffffffffffff1673ffffffffffffffffffffffffffffffffffffffff167f8be0079c531659141344cd1fd0a4f28419497f9722a3daafe3b4186f6b6457e060405160405180910390a380600560006101000a81548173ffffffffffffffffffffffffffffffffffffffff021916908373ffffffffffffffffffffffffffffffffffffffff16021790555050565b611767838383610d4f565b600073ffffffffffffffffffffffffffffffffffffffff168373ffffffffffffffffffffffffffffffffffffffff16141561181d576117a4610f6b565b73ffffffffffffffffffffffffffffffffffffffff166117c2610a07565b73ffffffffffffffffffffffffffffffffffffffff1614611818576040517f08c379a000000000000000000000000000000000000000000000000000000000815260040161180f90611d06565b60405180910390fd5b61186f565b6000611828846113cf565b90508181101561186d576040517f08c379a000000000000000000000000000000000000000000000000000000000815260040161186490611da6565b60405180910390fd5b505b505050565b60008135905061188381612671565b92915050565b60008135905061189881612688565b92915050565b6000602082840312156118b057600080fd5b60006118be84828501611874565b91505092915050565b600080604083850312156118da57600080fd5b60006118e885828601611874565b92505060206118f985828601611874565b9150509250929050565b60008060006060848603121561191857600080fd5b600061192686828701611874565b935050602061193786828701611874565b925050604061194886828701611889565b9150509250925092565b6000806040838503121561196557600080fd5b600061197385828601611874565b925050602061198485828601611889565b9150509250929050565b6000806000606084860312156119a357600080fd5b60006119b186828701611874565b93505060206119c286828701611889565b92505060406119d386828701611889565b9150509250925092565b6119e681612051565b82525050565b6119f581612063565b82525050565b6000611a0682611f20565b611a108185611f2b565b9350611a208185602086016120c2565b611a29816121e5565b840191505092915050565b6000611a41602383611f2b565b9150611a4c826121f6565b604082019050919050565b6000611a64602d83611f2b565b9150611a6f82612245565b604082019050919050565b6000611a87603283611f2b565b9150611a9282612294565b604082019050919050565b6000611aaa602683611f2b565b9150611ab5826122e3565b604082019050919050565b6000611acd602283611f2b565b9150611ad882612332565b604082019050919050565b6000611af0602983611f2b565b9150611afb82612381565b604082019050919050565b6000611b13602683611f2b565b9150611b1e826123d0565b604082019050919050565b6000611b36602c83611f2b565b9150611b418261241f565b604082019050919050565b6000611b59602b83611f2b565b9150611b648261246e565b604082019050919050565b6000611b7c602883611f2b565b9150611b87826124bd565b604082019050919050565b6000611b9f602083611f2b565b9150611baa8261250c565b602082019050919050565b6000611bc2602583611f2b565b9150611bcd82612535565b604082019050919050565b6000611be5602483611f2b565b9150611bf082612584565b604082019050919050565b6000611c08603183611f2b565b9150611c13826125d3565b604082019050919050565b6000611c2b602583611f2b565b9150611c3682612622565b604082019050919050565b611c4a8161206f565b82525050565b611c59816120ab565b82525050565b611c68816120b5565b82525050565b6000602082019050611c8360008301846119dd565b92915050565b6000602082019050611c9e60008301846119ec565b92915050565b60006020820190508181036000830152611cbe81846119fb565b905092915050565b60006020820190508181036000830152611cdf81611a34565b9050919050565b60006020820190508181036000830152611cff81611a57565b9050919050565b60006020820190508181036000830152611d1f81611a7a565b9050919050565b60006020820190508181036000830152611d3f81611a9d565b9050919050565b60006020820190508181036000830152611d5f81611ac0565b9050919050565b60006020820190508181036000830152611d7f81611ae3565b9050919050565b60006020820190508181036000830152611d9f81611b06565b9050919050565b60006020820190508181036000830152611dbf81611b29565b9050919050565b60006020820190508181036000830152611ddf81611b4c565b9050919050565b60006020820190508181036000830152611dff81611b6f565b9050919050565b60006020820190508181036000830152611e1f81611b92565b9050919050565b60006020820190508181036000830152611e3f81611bb5565b9050919050565b60006020820190508181036000830152611e5f81611bd8565b9050919050565b60006020820190508181036000830152611e7f81611bfb565b9050919050565b60006020820190508181036000830152611e9f81611c1e565b9050919050565b6000602082019050611ebb6000830184611c41565b92915050565b6000602082019050611ed66000830184611c50565b92915050565b6000604082019050611ef16000830185611c50565b611efe6020830184611c50565b9392505050565b6000602082019050611f1a6000830184611c5f565b92915050565b600081519050919050565b600082825260208201905092915050565b6000611f47826120ab565b9150611f52836120ab565b9250827fffffffffffffffffffffffffffffffffffffffffffffffffffffffffffffffff03821115611f8757611f86612158565b5b828201905092915050565b6000611f9d826120ab565b9150611fa8836120ab565b925082611fb857611fb7612187565b5b828204905092915050565b6000611fce826120ab565b9150611fd9836120ab565b9250817fffffffffffffffffffffffffffffffffffffffffffffffffffffffffffffffff048311821515161561201257612011612158565b5b828202905092915050565b6000612028826120ab565b9150612033836120ab565b92508282101561204657612045612158565b5b828203905092915050565b600061205c8261208b565b9050919050565b60008115159050919050565b60006fffffffffffffffffffffffffffffffff82169050919050565b600073ffffffffffffffffffffffffffffffffffffffff82169050919050565b6000819050919050565b600060ff82169050919050565b60005b838110156120e05780820151818401526020810190506120c5565b838111156120ef576000848401525b50505050565b6000600282049050600182168061210d57607f821691505b60208210811415612121576121206121b6565b5b50919050565b6000612132826120ab565b915061213d836120ab565b92508261214d5761214c612187565b5b828206905092915050565b7f4e487b7100000000000000000000000000000000000000000000000000000000600052601160045260246000fd5b7f4e487b7100000000000000000000000000000000000000000000000000000000600052601260045260246000fd5b7f4e487b7100000000000000000000000000000000000000000000000000000000600052602260045260246000fd5b6000601f19601f8301169050919050565b7f45524332303a207472616e7366657220746f20746865207a65726f206164647260008201527f6573730000000000000000000000000000000000000000000000000000000000602082015250565b7f45524332305665737465643a204e6577206f776e6572206d757374206e6f742060008201527f686176652076657374696e672e00000000000000000000000000000000000000602082015250565b7f45524332305665737465643a204f6e6c79206f776e657220697320616c6c6f7760008201527f656420746f206d696e7420746f6b656e732e0000000000000000000000000000602082015250565b7f4f776e61626c653a206e6577206f776e657220697320746865207a65726f206160008201527f6464726573730000000000000000000000000000000000000000000000000000602082015250565b7f45524332303a20617070726f766520746f20746865207a65726f20616464726560008201527f7373000000000000000000000000000000000000000000000000000000000000602082015250565b7f45524332305665737465643a204f776e6572206d757374206e6f74206861766560008201527f2076657374696e672e0000000000000000000000000000000000000000000000602082015250565b7f45524332303a207472616e7366657220616d6f756e742065786365656473206260008201527f616c616e63650000000000000000000000000000000000000000000000000000602082015250565b7f45524332305665737465643a20416d6f756e74206578636565647320616d6f7560008201527f6e7420617661696c61626c650000000000000000000000000000000000000000602082015250565b7f45524332305665737465643a20526563697069656e7420616c7265616479206860008201527f61732076657374696e672e000000000000000000000000000000000000000000602082015250565b7f45524332303a207472616e7366657220616d6f756e742065786365656473206160008201527f6c6c6f77616e6365000000000000000000000000000000000000000000000000602082015250565b7f4f776e61626c653a2063616c6c6572206973206e6f7420746865206f776e6572600082015250565b7f45524332303a207472616e736665722066726f6d20746865207a65726f20616460008201527f6472657373000000000000000000000000000000000000000000000000000000602082015250565b7f45524332303a20617070726f76652066726f6d20746865207a65726f2061646460008201527f7265737300000000000000000000000000000000000000000000000000000000602082015250565b7f45524332305665737465643a20416d6f756e7420766573746564206d7573742060008201527f6265206c6172676572207468616e20302e000000000000000000000000000000602082015250565b7f45524332303a2064656372656173656420616c6c6f77616e63652062656c6f7760008201527f207a65726f000000000000000000000000000000000000000000000000000000602082015250565b61267a81612051565b811461268557600080fd5b50565b612691816120ab565b811461269c57600080fd5b5056fea2646970667358221220da21c4f052f5fccb1c8a477f6295ba35159efa398caa5dcfcf127c16394aa5b064736f6c63430008010033",
  "devdoc": {
    "kind": "dev",
    "methods": {
      "allowance(address,address)": {
        "details": "See {IERC20-allowance}."
      },
      "approve(address,uint256)": {
        "details": "See {IERC20-approve}. Requirements: - `spender` cannot be the zero address."
      },
      "balanceOf(address)": {
        "details": "See {IERC20-balanceOf}."
      },
      "decimals()": {
        "details": "Returns the number of decimals used to get its user representation. For example, if `decimals` equals `2`, a balance of `505` tokens should be displayed to a user as `5,05` (`505 / 10 ** 2`). Tokens usually opt for a value of 18, imitating the relationship between Ether and Wei. This is the value {ERC20} uses, unless this function is overloaded; NOTE: This information is only used for _display_ purposes: it in no way affects any of the arithmetic of the contract, including {IERC20-balanceOf} and {IERC20-transfer}."
      },
      "decreaseAllowance(address,uint256)": {
        "details": "Atomically decreases the allowance granted to `spender` by the caller. This is an alternative to {approve} that can be used as a mitigation for problems described in {IERC20-approve}. Emits an {Approval} event indicating the updated allowance. Requirements: - `spender` cannot be the zero address. - `spender` must have allowance for the caller of at least `subtractedValue`."
      },
      "increaseAllowance(address,uint256)": {
        "details": "Atomically increases the allowance granted to `spender` by the caller. This is an alternative to {approve} that can be used as a mitigation for problems described in {IERC20-approve}. Emits an {Approval} event indicating the updated allowance. Requirements: - `spender` cannot be the zero address."
      },
      "name()": {
        "details": "Returns the name of the token."
      },
      "owner()": {
        "details": "Returns the address of the current owner."
      },
      "renounceOwnership()": {
        "details": "Leaves the contract without owner. It will not be possible to call `onlyOwner` functions anymore. Can only be called by the current owner. NOTE: Renouncing ownership will leave the contract without an owner, thereby removing any functionality that is only available to the owner."
      },
      "symbol()": {
        "details": "Returns the symbol of the token, usually a shorter version of the name."
      },
      "totalSupply()": {
        "details": "See {IERC20-totalSupply}."
      },
      "transfer(address,uint256)": {
        "details": "See {IERC20-transfer}. Requirements: - `recipient` cannot be the zero address. - the caller must have a balance of at least `amount`."
      },
      "transferFrom(address,address,uint256)": {
        "details": "See {IERC20-transferFrom}. Emits an {Approval} event indicating the updated allowance. This is not required by the EIP. See the note at the beginning of {ERC20}. Requirements: - `sender` and `recipient` cannot be the zero address. - `sender` must have a balance of at least `amount`. - the caller must have allowance for ``sender``'s tokens of at least `amount`."
      },
      "transferOwnership(address)": {
        "details": "Transfers ownership of the contract to a new account (`newOwner`). Can only be called by the current owner."
      }
    },
    "version": 1
  },
  "userdoc": {
    "kind": "user",
    "methods": {},
    "version": 1
  },
  "storageLayout": {
    "storage": [
      {
        "astId": 891,
        "contract": "contracts/ERC20Vested.sol:ERC20Vested",
        "label": "_balances",
        "offset": 0,
        "slot": "0",
        "type": "t_mapping(t_address,t_uint256)"
      },
      {
        "astId": 897,
        "contract": "contracts/ERC20Vested.sol:ERC20Vested",
        "label": "_allowances",
        "offset": 0,
        "slot": "1",
        "type": "t_mapping(t_address,t_mapping(t_address,t_uint256))"
      },
      {
        "astId": 899,
        "contract": "contracts/ERC20Vested.sol:ERC20Vested",
        "label": "_totalSupply",
        "offset": 0,
        "slot": "2",
        "type": "t_uint256"
      },
      {
        "astId": 901,
        "contract": "contracts/ERC20Vested.sol:ERC20Vested",
        "label": "_name",
        "offset": 0,
        "slot": "3",
        "type": "t_string_storage"
      },
      {
        "astId": 903,
        "contract": "contracts/ERC20Vested.sol:ERC20Vested",
        "label": "_symbol",
        "offset": 0,
        "slot": "4",
        "type": "t_string_storage"
      },
      {
        "astId": 391,
        "contract": "contracts/ERC20Vested.sol:ERC20Vested",
        "label": "_owner",
        "offset": 0,
        "slot": "5",
        "type": "t_address"
      },
      {
        "astId": 36,
        "contract": "contracts/ERC20Vested.sol:ERC20Vested",
        "label": "_vestingDays",
        "offset": 0,
        "slot": "6",
        "type": "t_array(t_uint256)dyn_storage"
      },
      {
        "astId": 39,
        "contract": "contracts/ERC20Vested.sol:ERC20Vested",
        "label": "_vestingBasisPoints",
        "offset": 0,
        "slot": "7",
        "type": "t_array(t_uint256)dyn_storage"
      },
      {
        "astId": 44,
        "contract": "contracts/ERC20Vested.sol:ERC20Vested",
        "label": "_vesting",
        "offset": 0,
        "slot": "8",
        "type": "t_mapping(t_address,t_struct(vesting)26_storage)"
      }
    ],
    "types": {
      "t_address": {
        "encoding": "inplace",
        "label": "address",
        "numberOfBytes": "20"
      },
      "t_array(t_uint256)dyn_storage": {
        "base": "t_uint256",
        "encoding": "dynamic_array",
        "label": "uint256[]",
        "numberOfBytes": "32"
      },
      "t_mapping(t_address,t_mapping(t_address,t_uint256))": {
        "encoding": "mapping",
        "key": "t_address",
        "label": "mapping(address => mapping(address => uint256))",
        "numberOfBytes": "32",
        "value": "t_mapping(t_address,t_uint256)"
      },
      "t_mapping(t_address,t_struct(vesting)26_storage)": {
        "encoding": "mapping",
        "key": "t_address",
        "label": "mapping(address => struct ERC20Vested.vesting)",
        "numberOfBytes": "32",
        "value": "t_struct(vesting)26_storage"
      },
      "t_mapping(t_address,t_uint256)": {
        "encoding": "mapping",
        "key": "t_address",
        "label": "mapping(address => uint256)",
        "numberOfBytes": "32",
        "value": "t_uint256"
      },
      "t_string_storage": {
        "encoding": "bytes",
        "label": "string",
        "numberOfBytes": "32"
      },
      "t_struct(vesting)26_storage": {
        "encoding": "inplace",
        "label": "struct ERC20Vested.vesting",
        "members": [
          {
            "astId": 23,
            "contract": "contracts/ERC20Vested.sol:ERC20Vested",
            "label": "amount",
            "offset": 0,
            "slot": "0",
            "type": "t_uint256"
          },
          {
            "astId": 25,
            "contract": "contracts/ERC20Vested.sol:ERC20Vested",
            "label": "startDate",
            "offset": 0,
            "slot": "1",
            "type": "t_uint256"
          }
        ],
        "numberOfBytes": "64"
      },
      "t_uint256": {
        "encoding": "inplace",
        "label": "uint256",
        "numberOfBytes": "32"
      }
    }
  }
}