{
  "address": "0x5FbDB2315678afecb367f032d93F642f64180aa3",
  "abi": [
    {
      "inputs": [
        {
          "internalType": "string",
          "name": "name",
          "type": "string"
        },
        {
          "internalType": "string",
          "name": "symbol",
          "type": "string"
        },
        {
          "internalType": "address",
          "name": "initialAccount",
          "type": "address"
        },
        {
          "internalType": "uint256",
          "name": "totalSupply",
          "type": "uint256"
        },
        {
          "internalType": "uint256[]",
          "name": "vestingDays",
          "type": "uint256[]"
        },
        {
          "internalType": "uint256[]",
          "name": "vestingBasisPoints",
          "type": "uint256[]"
        }
      ],
      "stateMutability": "payable",
      "type": "constructor"
    },
    {
      "anonymous": false,
      "inputs": [
        {
          "indexed": true,
          "internalType": "address",
          "name": "owner",
          "type": "address"
        },
        {
          "indexed": true,
          "internalType": "address",
          "name": "spender",
          "type": "address"
        },
        {
          "indexed": false,
          "internalType": "uint256",
          "name": "value",
          "type": "uint256"
        }
      ],
      "name": "Approval",
      "type": "event"
    },
    {
      "anonymous": false,
      "inputs": [
        {
          "indexed": true,
          "internalType": "address",
          "name": "previousOwner",
          "type": "address"
        },
        {
          "indexed": true,
          "internalType": "address",
          "name": "newOwner",
          "type": "address"
        }
      ],
      "name": "OwnershipTransferred",
      "type": "event"
    },
    {
      "anonymous": false,
      "inputs": [
        {
          "indexed": true,
          "internalType": "address",
          "name": "from",
          "type": "address"
        },
        {
          "indexed": true,
          "internalType": "address",
          "name": "to",
          "type": "address"
        },
        {
          "indexed": false,
          "internalType": "uint256",
          "name": "value",
          "type": "uint256"
        }
      ],
      "name": "Transfer",
      "type": "event"
    },
    {
      "inputs": [
        {
          "internalType": "address",
          "name": "owner",
          "type": "address"
        },
        {
          "internalType": "address",
          "name": "spender",
          "type": "address"
        }
      ],
      "name": "allowance",
      "outputs": [
        {
          "internalType": "uint256",
          "name": "",
          "type": "uint256"
        }
      ],
      "stateMutability": "view",
      "type": "function"
    },
    {
      "inputs": [
        {
          "internalType": "address",
          "name": "spender",
          "type": "address"
        },
        {
          "internalType": "uint256",
          "name": "amount",
          "type": "uint256"
        }
      ],
      "name": "approve",
      "outputs": [
        {
          "internalType": "bool",
          "name": "",
          "type": "bool"
        }
      ],
      "stateMutability": "nonpayable",
      "type": "function"
    },
    {
      "inputs": [
        {
          "internalType": "address",
          "name": "account",
          "type": "address"
        }
      ],
      "name": "balanceOf",
      "outputs": [
        {
          "internalType": "uint256",
          "name": "",
          "type": "uint256"
        }
      ],
      "stateMutability": "view",
      "type": "function"
    },
    {
      "inputs": [],
      "name": "decimals",
      "outputs": [
        {
          "internalType": "uint8",
          "name": "",
          "type": "uint8"
        }
      ],
      "stateMutability": "view",
      "type": "function"
    },
    {
      "inputs": [
        {
          "internalType": "address",
          "name": "spender",
          "type": "address"
        },
        {
          "internalType": "uint256",
          "name": "subtractedValue",
          "type": "uint256"
        }
      ],
      "name": "decreaseAllowance",
      "outputs": [
        {
          "internalType": "bool",
          "name": "",
          "type": "bool"
        }
      ],
      "stateMutability": "nonpayable",
      "type": "function"
    },
    {
      "inputs": [
        {
          "internalType": "address",
          "name": "spender",
          "type": "address"
        },
        {
          "internalType": "uint256",
          "name": "addedValue",
          "type": "uint256"
        }
      ],
      "name": "increaseAllowance",
      "outputs": [
        {
          "internalType": "bool",
          "name": "",
          "type": "bool"
        }
      ],
      "stateMutability": "nonpayable",
      "type": "function"
    },
    {
      "inputs": [],
      "name": "name",
      "outputs": [
        {
          "internalType": "string",
          "name": "",
          "type": "string"
        }
      ],
      "stateMutability": "view",
      "type": "function"
    },
    {
      "inputs": [],
      "name": "owner",
      "outputs": [
        {
          "internalType": "address",
          "name": "",
          "type": "address"
        }
      ],
      "stateMutability": "view",
      "type": "function"
    },
    {
      "inputs": [],
      "name": "renounceOwnership",
      "outputs": [],
      "stateMutability": "nonpayable",
      "type": "function"
    },
    {
      "inputs": [],
      "name": "symbol",
      "outputs": [
        {
          "internalType": "string",
          "name": "",
          "type": "string"
        }
      ],
      "stateMutability": "view",
      "type": "function"
    },
    {
      "inputs": [],
      "name": "today",
      "outputs": [
        {
          "internalType": "uint128",
          "name": "",
          "type": "uint128"
        }
      ],
      "stateMutability": "view",
      "type": "function"
    },
    {
      "inputs": [
        {
          "internalType": "address",
          "name": "account",
          "type": "address"
        }
      ],
      "name": "totalBalanceOf",
      "outputs": [
        {
          "internalType": "uint256",
          "name": "",
          "type": "uint256"
        }
      ],
      "stateMutability": "view",
      "type": "function"
    },
    {
      "inputs": [],
      "name": "totalSupply",
      "outputs": [
        {
          "internalType": "uint256",
          "name": "",
          "type": "uint256"
        }
      ],
      "stateMutability": "view",
      "type": "function"
    },
    {
      "inputs": [
        {
          "internalType": "address",
          "name": "recipient",
          "type": "address"
        },
        {
          "internalType": "uint256",
          "name": "amount",
          "type": "uint256"
        }
      ],
      "name": "transfer",
      "outputs": [
        {
          "internalType": "bool",
          "name": "",
          "type": "bool"
        }
      ],
      "stateMutability": "nonpayable",
      "type": "function"
    },
    {
      "inputs": [
        {
          "internalType": "address",
          "name": "sender",
          "type": "address"
        },
        {
          "internalType": "address",
          "name": "recipient",
          "type": "address"
        },
        {
          "internalType": "uint256",
          "name": "amount",
          "type": "uint256"
        }
      ],
      "name": "transferFrom",
      "outputs": [
        {
          "internalType": "bool",
          "name": "",
          "type": "bool"
        }
      ],
      "stateMutability": "nonpayable",
      "type": "function"
    },
    {
      "inputs": [
        {
          "internalType": "address",
          "name": "newOwner",
          "type": "address"
        }
      ],
      "name": "transferOwnership",
      "outputs": [],
      "stateMutability": "nonpayable",
      "type": "function"
    },
    {
      "inputs": [
        {
          "internalType": "address",
          "name": "recipient",
          "type": "address"
        },
        {
          "internalType": "uint256",
          "name": "amount",
          "type": "uint256"
        },
        {
          "internalType": "uint256",
          "name": "startDate",
          "type": "uint256"
        }
      ],
      "name": "transferVested",
      "outputs": [],
      "stateMutability": "nonpayable",
      "type": "function"
    }
  ],
  "transactionHash": "0x1cd075a81762fc69d28a0ac267f43d2c7be2e4a36ec799dc5835864aed998814",
  "args": [
    "Mondo Community Coin",
    "MNDCC",
    "0xf39Fd6e51aad88F6F4ce6aB8827279cffFb92266",
    "180000000000000000000000000",
    [
      2592000,
      5184000,
      7776000,
      10368000,
      12960000,
      15552000,
      18144000,
      20736000,
      23328000,
      25920000,
      28512000,
      31104000,
      33696000,
      36288000,
      38880000,
      41472000,
      44064000,
      46656000,
      49248000,
      51840000,
      54432000,
      57024000,
      59616000,
      62208000,
      64800000,
      67392000,
      69984000,
      72576000,
      75168000
    ],
    [
      50,
      100,
      150,
      200,
      250,
      300,
      350,
      400,
      450,
      500,
      550,
      600,
      650,
      700,
      750,
      800,
      850,
      900,
      950,
      1000,
      2000,
      3000,
      4000,
      5000,
      6000,
      7000,
      8000,
      9000,
      10000
    ]
  ],
  "solcInputHash": "19adb81c92583318c2860850454ff431",
  "bytecode": "0x60806040526040516200354138038062003541833981810160405281019062000029919062000b0b565b8585816003908051906020019062000043929190620008c7565b5080600490805190602001906200005c929190620008c7565b505050600062000071620001a760201b60201c565b905080600560006101000a81548173ffffffffffffffffffffffffffffffffffffffff021916908373ffffffffffffffffffffffffffffffffffffffff1602179055508073ffffffffffffffffffffffffffffffffffffffff16600073ffffffffffffffffffffffffffffffffffffffff167f8be0079c531659141344cd1fd0a4f28419497f9722a3daafe3b4186f6b6457e060405160405180910390a350805182511462000157576040517f08c379a00000000000000000000000000000000000000000000000000000000081526004016200014e9062000cd4565b60405180910390fd5b620001698484620001af60201b60201c565b81600690805190602001906200018192919062000958565b5080600790805190602001906200019a92919062000958565b505050505050506200127c565b600033905090565b600073ffffffffffffffffffffffffffffffffffffffff168273ffffffffffffffffffffffffffffffffffffffff16141562000222576040517f08c379a0000000000000000000000000000000000000000000000000000000008152600401620002199062000d18565b60405180910390fd5b62000236600083836200031460201b60201c565b80600260008282546200024a919062000df6565b92505081905550806000808473ffffffffffffffffffffffffffffffffffffffff1673ffffffffffffffffffffffffffffffffffffffff1681526020019081526020016000206000828254620002a1919062000df6565b925050819055508173ffffffffffffffffffffffffffffffffffffffff16600073ffffffffffffffffffffffffffffffffffffffff167fddf252ad1be2c89b69c2b068fc378daa952ba7f163c4a11628f55a4df523b3ef8360405162000308919062000d3a565b60405180910390a35050565b6200032c8383836200045960201b62000d081760201c565b600073ffffffffffffffffffffffffffffffffffffffff168373ffffffffffffffffffffffffffffffffffffffff161415620003f75762000372620001a760201b60201c565b73ffffffffffffffffffffffffffffffffffffffff16620003986200045e60201b60201c565b73ffffffffffffffffffffffffffffffffffffffff1614620003f1576040517f08c379a0000000000000000000000000000000000000000000000000000000008152600401620003e89062000cb2565b60405180910390fd5b62000454565b60006200040a846200048860201b60201c565b90508181101562000452576040517f08c379a0000000000000000000000000000000000000000000000000000000008152600401620004499062000cf6565b60405180910390fd5b505b505050565b505050565b6000600560009054906101000a900473ffffffffffffffffffffffffffffffffffffffff16905090565b600080600860008473ffffffffffffffffffffffffffffffffffffffff1673ffffffffffffffffffffffffffffffffffffffff1681526020019081526020016000206040518060400160405290816000820154815260200160018201548152505090506000620004fe846200065560201b60201c565b90506000826000015111156200064a5760006200055d8360200151620005296200067460201b60201c565b6fffffffffffffffffffffffffffffffff1662000547919062000eec565b60066200067c60201b62000d0d1790919060201c565b90506006805490508110156200063e57600060078281548110620005aa577f4e487b7100000000000000000000000000000000000000000000000000000000600052603260045260246000fd5b906000526020600020015490506000620005f2612710620005de848860000151620007c060201b62000e331790919060201c565b620007d860201b62000e491790919060201c565b9050600062000614828760000151620007f060201b62000e5f1790919060201c565b9050620006308186620007f060201b62000e5f1790919060201c565b965050505050505062000650565b81935050505062000650565b80925050505b919050565b60006200066d826200080860201b62000e751760201c565b9050919050565b600042905090565b60008083805490501415620006955760009050620007ba565b600080848054905090505b8082101562000733576000620006c283836200085060201b62000ebd1760201c565b905084868281548110620006ff577f4e487b7100000000000000000000000000000000000000000000000000000000600052603260045260246000fd5b906000526020600020015411156200071a578091506200072c565b60018162000729919062000df6565b92505b50620006a0565b600082118015620007955750838560018462000750919062000eec565b8154811062000788577f4e487b7100000000000000000000000000000000000000000000000000000000600052603260045260246000fd5b9060005260206000200154145b15620007b457600182620007aa919062000eec565b92505050620007ba565b81925050505b92915050565b60008183620007d0919062000e8b565b905092915050565b60008183620007e8919062000e53565b905092915050565b6000818362000800919062000eec565b905092915050565b60008060008373ffffffffffffffffffffffffffffffffffffffff1673ffffffffffffffffffffffffffffffffffffffff168152602001908152602001600020549050919050565b60006002808362000862919062001007565b60028562000871919062001007565b6200087d919062000df6565b62000889919062000e53565b60028362000898919062000e53565b600285620008a7919062000e53565b620008b3919062000df6565b620008bf919062000df6565b905092915050565b828054620008d59062000f9b565b90600052602060002090601f016020900481019282620008f9576000855562000945565b82601f106200091457805160ff191683800117855562000945565b8280016001018555821562000945579182015b828111156200094457825182559160200191906001019062000927565b5b509050620009549190620009aa565b5090565b82805482825590600052602060002090810192821562000997579160200282015b828111156200099657825182559160200191906001019062000979565b5b509050620009a69190620009aa565b5090565b5b80821115620009c5576000816000905550600101620009ab565b5090565b6000620009e0620009da8462000d80565b62000d57565b9050808382526020820190508285602086028201111562000a0057600080fd5b60005b8581101562000a34578162000a19888262000af4565b84526020840193506020830192505060018101905062000a03565b5050509392505050565b600062000a5562000a4f8462000daf565b62000d57565b90508281526020810184848401111562000a6e57600080fd5b62000a7b84828562000f65565b509392505050565b60008151905062000a948162001248565b92915050565b600082601f83011262000aac57600080fd5b815162000abe848260208601620009c9565b91505092915050565b600082601f83011262000ad957600080fd5b815162000aeb84826020860162000a3e565b91505092915050565b60008151905062000b058162001262565b92915050565b60008060008060008060c0878903121562000b2557600080fd5b600087015167ffffffffffffffff81111562000b4057600080fd5b62000b4e89828a0162000ac7565b965050602087015167ffffffffffffffff81111562000b6c57600080fd5b62000b7a89828a0162000ac7565b955050604062000b8d89828a0162000a83565b945050606062000ba089828a0162000af4565b935050608087015167ffffffffffffffff81111562000bbe57600080fd5b62000bcc89828a0162000a9a565b92505060a087015167ffffffffffffffff81111562000bea57600080fd5b62000bf889828a0162000a9a565b9150509295509295509295565b600062000c1460328362000de5565b915062000c21826200110c565b604082019050919050565b600062000c3b60468362000de5565b915062000c48826200115b565b606082019050919050565b600062000c62602c8362000de5565b915062000c6f82620011d0565b604082019050919050565b600062000c89601f8362000de5565b915062000c96826200121f565b602082019050919050565b62000cac8162000f5b565b82525050565b6000602082019050818103600083015262000ccd8162000c05565b9050919050565b6000602082019050818103600083015262000cef8162000c2c565b9050919050565b6000602082019050818103600083015262000d118162000c53565b9050919050565b6000602082019050818103600083015262000d338162000c7a565b9050919050565b600060208201905062000d51600083018462000ca1565b92915050565b600062000d6362000d76565b905062000d71828262000fd1565b919050565b6000604051905090565b600067ffffffffffffffff82111562000d9e5762000d9d620010cc565b5b602082029050602081019050919050565b600067ffffffffffffffff82111562000dcd5762000dcc620010cc565b5b62000dd882620010fb565b9050602081019050919050565b600082825260208201905092915050565b600062000e038262000f5b565b915062000e108362000f5b565b9250827fffffffffffffffffffffffffffffffffffffffffffffffffffffffffffffffff0382111562000e485762000e476200103f565b5b828201905092915050565b600062000e608262000f5b565b915062000e6d8362000f5b565b92508262000e805762000e7f6200106e565b5b828204905092915050565b600062000e988262000f5b565b915062000ea58362000f5b565b9250817fffffffffffffffffffffffffffffffffffffffffffffffffffffffffffffffff048311821515161562000ee15762000ee06200103f565b5b828202905092915050565b600062000ef98262000f5b565b915062000f068362000f5b565b92508282101562000f1c5762000f1b6200103f565b5b828203905092915050565b600062000f348262000f3b565b9050919050565b600073ffffffffffffffffffffffffffffffffffffffff82169050919050565b6000819050919050565b60005b8381101562000f8557808201518184015260208101905062000f68565b8381111562000f95576000848401525b50505050565b6000600282049050600182168062000fb457607f821691505b6020821081141562000fcb5762000fca6200109d565b5b50919050565b62000fdc82620010fb565b810181811067ffffffffffffffff8211171562000ffe5762000ffd620010cc565b5b80604052505050565b6000620010148262000f5b565b9150620010218362000f5b565b9250826200103457620010336200106e565b5b828206905092915050565b7f4e487b7100000000000000000000000000000000000000000000000000000000600052601160045260246000fd5b7f4e487b7100000000000000000000000000000000000000000000000000000000600052601260045260246000fd5b7f4e487b7100000000000000000000000000000000000000000000000000000000600052602260045260246000fd5b7f4e487b7100000000000000000000000000000000000000000000000000000000600052604160045260246000fd5b6000601f19601f8301169050919050565b7f45524332305665737465643a204f6e6c79206f776e657220697320616c6c6f7760008201527f656420746f206d696e7420746f6b656e732e0000000000000000000000000000602082015250565b7f45524332305665737465643a204461746520617272617920616e64206261736960008201527f7320706f696e7473206172726179206861766520646966666572656e74206c6560208201527f6e677468732e0000000000000000000000000000000000000000000000000000604082015250565b7f45524332305665737465643a20416d6f756e74206578636565647320616d6f7560008201527f6e7420617661696c61626c650000000000000000000000000000000000000000602082015250565b7f45524332303a206d696e7420746f20746865207a65726f206164647265737300600082015250565b620012538162000f27565b81146200125f57600080fd5b50565b6200126d8162000f5b565b81146200127957600080fd5b50565b6122b5806200128c6000396000f3fe608060405234801561001057600080fd5b506004361061010b5760003560e01c806370a08231116100a2578063a457c2d711610071578063a457c2d7146102bc578063a9059cbb146102ec578063b74e452b1461031c578063dd62ed3e1461033a578063f2fde38b1461036a5761010b565b806370a0823114610246578063715018a6146102765780638da5cb5b1461028057806395d89b411461029e5761010b565b806323b872dd116100de57806323b872dd14610198578063313ce567146101c857806339509351146101e65780634b0ee02a146102165761010b565b806306fdde0314610110578063095ea7b31461012e57806314f7da8f1461015e57806318160ddd1461017a575b600080fd5b610118610386565b60405161012591906119fa565b60405180910390f35b61014860048036038101906101439190611711565b610418565b60405161015591906119df565b60405180910390f35b6101786004803603810190610173919061174d565b610436565b005b6101826105de565b60405161018f9190611bb7565b60405180910390f35b6101b260048036038101906101ad91906116c2565b6105e8565b6040516101bf91906119df565b60405180910390f35b6101d06106e9565b6040516101dd9190611bd2565b60405180910390f35b61020060048036038101906101fb9190611711565b6106f2565b60405161020d91906119df565b60405180910390f35b610230600480360381019061022b919061165d565b61079e565b60405161023d9190611bb7565b60405180910390f35b610260600480360381019061025b919061165d565b6107b0565b60405161026d9190611bb7565b60405180910390f35b61027e6107c2565b005b6102886108ff565b60405161029591906119c4565b60405180910390f35b6102a6610929565b6040516102b391906119fa565b60405180910390f35b6102d660048036038101906102d19190611711565b6109bb565b6040516102e391906119df565b60405180910390f35b61030660048036038101906103019190611711565b610aaf565b60405161031391906119df565b60405180910390f35b610324610acd565b6040516103319190611b9c565b60405180910390f35b610354600480360381019061034f9190611686565b610ad5565b6040516103619190611bb7565b60405180910390f35b610384600480360381019061037f919061165d565b610b5c565b005b60606003805461039590611dc2565b80601f01602080910402602001604051908101604052809291908181526020018280546103c190611dc2565b801561040e5780601f106103e35761010080835404028352916020019161040e565b820191906000526020600020905b8154815290600101906020018083116103f157829003601f168201915b5050505050905090565b600061042c610425610f24565b8484610f2c565b6001905092915050565b61043e610f24565b73ffffffffffffffffffffffffffffffffffffffff1661045c6108ff565b73ffffffffffffffffffffffffffffffffffffffff16146104b2576040517f08c379a00000000000000000000000000000000000000000000000000000000081526004016104a990611b1c565b60405180910390fd5b6000600860008573ffffffffffffffffffffffffffffffffffffffff1673ffffffffffffffffffffffffffffffffffffffff168152602001908152602001600020604051806040016040529081600082015481526020016001820154815250509050600081600001511461055b576040517f08c379a000000000000000000000000000000000000000000000000000000000815260040161055290611abc565b60405180910390fd5b604051806040016040528084815260200183815250600860008673ffffffffffffffffffffffffffffffffffffffff1673ffffffffffffffffffffffffffffffffffffffff16815260200190815260200160002060008201518160000155602082015181600101559050506105d86105d1610f24565b85856110f7565b50505050565b6000600254905090565b60006105f58484846110f7565b6000600160008673ffffffffffffffffffffffffffffffffffffffff1673ffffffffffffffffffffffffffffffffffffffff1681526020019081526020016000206000610640610f24565b73ffffffffffffffffffffffffffffffffffffffff1673ffffffffffffffffffffffffffffffffffffffff168152602001908152602001600020549050828110156106c0576040517f08c379a00000000000000000000000000000000000000000000000000000000081526004016106b790611afc565b60405180910390fd5b6106dd856106cc610f24565b85846106d89190611cea565b610f2c565b60019150509392505050565b60006012905090565b60006107946106ff610f24565b84846001600061070d610f24565b73ffffffffffffffffffffffffffffffffffffffff1673ffffffffffffffffffffffffffffffffffffffff16815260200190815260200160002060008873ffffffffffffffffffffffffffffffffffffffff1673ffffffffffffffffffffffffffffffffffffffff1681526020019081526020016000205461078f9190611c09565b610f2c565b6001905092915050565b60006107a982611376565b9050919050565b60006107bb82611388565b9050919050565b6107ca610f24565b73ffffffffffffffffffffffffffffffffffffffff166107e86108ff565b73ffffffffffffffffffffffffffffffffffffffff161461083e576040517f08c379a000000000000000000000000000000000000000000000000000000000815260040161083590611b1c565b60405180910390fd5b600073ffffffffffffffffffffffffffffffffffffffff16600560009054906101000a900473ffffffffffffffffffffffffffffffffffffffff1673ffffffffffffffffffffffffffffffffffffffff167f8be0079c531659141344cd1fd0a4f28419497f9722a3daafe3b4186f6b6457e060405160405180910390a36000600560006101000a81548173ffffffffffffffffffffffffffffffffffffffff021916908373ffffffffffffffffffffffffffffffffffffffff160217905550565b6000600560009054906101000a900473ffffffffffffffffffffffffffffffffffffffff16905090565b60606004805461093890611dc2565b80601f016020809104026020016040519081016040528092919081815260200182805461096490611dc2565b80156109b15780601f10610986576101008083540402835291602001916109b1565b820191906000526020600020905b81548152906001019060200180831161099457829003601f168201915b5050505050905090565b600080600160006109ca610f24565b73ffffffffffffffffffffffffffffffffffffffff1673ffffffffffffffffffffffffffffffffffffffff16815260200190815260200160002060008573ffffffffffffffffffffffffffffffffffffffff1673ffffffffffffffffffffffffffffffffffffffff16815260200190815260200160002054905082811015610a87576040517f08c379a0000000000000000000000000000000000000000000000000000000008152600401610a7e90611b7c565b60405180910390fd5b610aa4610a92610f24565b858584610a9f9190611cea565b610f2c565b600191505092915050565b6000610ac3610abc610f24565b84846110f7565b6001905092915050565b600042905090565b6000600160008473ffffffffffffffffffffffffffffffffffffffff1673ffffffffffffffffffffffffffffffffffffffff16815260200190815260200160002060008373ffffffffffffffffffffffffffffffffffffffff1673ffffffffffffffffffffffffffffffffffffffff16815260200190815260200160002054905092915050565b610b64610f24565b73ffffffffffffffffffffffffffffffffffffffff16610b826108ff565b73ffffffffffffffffffffffffffffffffffffffff1614610bd8576040517f08c379a0000000000000000000000000000000000000000000000000000000008152600401610bcf90611b1c565b60405180910390fd5b600073ffffffffffffffffffffffffffffffffffffffff168173ffffffffffffffffffffffffffffffffffffffff161415610c48576040517f08c379a0000000000000000000000000000000000000000000000000000000008152600401610c3f90611a5c565b60405180910390fd5b8073ffffffffffffffffffffffffffffffffffffffff16600560009054906101000a900473ffffffffffffffffffffffffffffffffffffffff1673ffffffffffffffffffffffffffffffffffffffff167f8be0079c531659141344cd1fd0a4f28419497f9722a3daafe3b4186f6b6457e060405160405180910390a380600560006101000a81548173ffffffffffffffffffffffffffffffffffffffff021916908373ffffffffffffffffffffffffffffffffffffffff16021790555050565b505050565b60008083805490501415610d245760009050610e2d565b600080848054905090505b80821015610dae576000610d438383610ebd565b905084868281548110610d7f577f4e487b7100000000000000000000000000000000000000000000000000000000600052603260045260246000fd5b90600052602060002001541115610d9857809150610da8565b600181610da59190611c09565b92505b50610d2f565b600082118015610e0c57508385600184610dc89190611cea565b81548110610dff577f4e487b7100000000000000000000000000000000000000000000000000000000600052603260045260246000fd5b9060005260206000200154145b15610e2757600182610e1e9190611cea565b92505050610e2d565b81925050505b92915050565b60008183610e419190611c90565b905092915050565b60008183610e579190611c5f565b905092915050565b60008183610e6d9190611cea565b905092915050565b60008060008373ffffffffffffffffffffffffffffffffffffffff1673ffffffffffffffffffffffffffffffffffffffff168152602001908152602001600020549050919050565b600060028083610ecd9190611df4565b600285610eda9190611df4565b610ee49190611c09565b610eee9190611c5f565b600283610efb9190611c5f565b600285610f089190611c5f565b610f129190611c09565b610f1c9190611c09565b905092915050565b600033905090565b600073ffffffffffffffffffffffffffffffffffffffff168373ffffffffffffffffffffffffffffffffffffffff161415610f9c576040517f08c379a0000000000000000000000000000000000000000000000000000000008152600401610f9390611b5c565b60405180910390fd5b600073ffffffffffffffffffffffffffffffffffffffff168273ffffffffffffffffffffffffffffffffffffffff16141561100c576040517f08c379a000000000000000000000000000000000000000000000000000000000815260040161100390611a7c565b60405180910390fd5b80600160008573ffffffffffffffffffffffffffffffffffffffff1673ffffffffffffffffffffffffffffffffffffffff16815260200190815260200160002060008473ffffffffffffffffffffffffffffffffffffffff1673ffffffffffffffffffffffffffffffffffffffff168152602001908152602001600020819055508173ffffffffffffffffffffffffffffffffffffffff168373ffffffffffffffffffffffffffffffffffffffff167f8c5be1e5ebec7d5bd14f71427d1e84f3dd0314c0f7b2291e5b200ac8c7c3b925836040516110ea9190611bb7565b60405180910390a3505050565b600073ffffffffffffffffffffffffffffffffffffffff168373ffffffffffffffffffffffffffffffffffffffff161415611167576040517f08c379a000000000000000000000000000000000000000000000000000000000815260040161115e90611b3c565b60405180910390fd5b600073ffffffffffffffffffffffffffffffffffffffff168273ffffffffffffffffffffffffffffffffffffffff1614156111d7576040517f08c379a00000000000000000000000000000000000000000000000000000000081526004016111ce90611a1c565b60405180910390fd5b6111e283838361151b565b60008060008573ffffffffffffffffffffffffffffffffffffffff1673ffffffffffffffffffffffffffffffffffffffff16815260200190815260200160002054905081811015611268576040517f08c379a000000000000000000000000000000000000000000000000000000000815260040161125f90611a9c565b60405180910390fd5b81816112749190611cea565b6000808673ffffffffffffffffffffffffffffffffffffffff1673ffffffffffffffffffffffffffffffffffffffff16815260200190815260200160002081905550816000808573ffffffffffffffffffffffffffffffffffffffff1673ffffffffffffffffffffffffffffffffffffffff16815260200190815260200160002060008282546113049190611c09565b925050819055508273ffffffffffffffffffffffffffffffffffffffff168473ffffffffffffffffffffffffffffffffffffffff167fddf252ad1be2c89b69c2b068fc378daa952ba7f163c4a11628f55a4df523b3ef846040516113689190611bb7565b60405180910390a350505050565b600061138182610e75565b9050919050565b600080600860008473ffffffffffffffffffffffffffffffffffffffff1673ffffffffffffffffffffffffffffffffffffffff16815260200190815260200160002060405180604001604052908160008201548152602001600182015481525050905060006113f684611376565b90506000826000015111156115105760006114438360200151611417610acd565b6fffffffffffffffffffffffffffffffff166114339190611cea565b6006610d0d90919063ffffffff16565b90506006805490508110156115055760006007828154811061148e577f4e487b7100000000000000000000000000000000000000000000000000000000600052603260045260246000fd5b9060005260206000200154905060006114c86127106114ba848860000151610e3390919063ffffffff16565b610e4990919063ffffffff16565b905060006114e3828760000151610e5f90919063ffffffff16565b90506114f88186610e5f90919063ffffffff16565b9650505050505050611516565b819350505050611516565b80925050505b919050565b611526838383610d08565b600073ffffffffffffffffffffffffffffffffffffffff168373ffffffffffffffffffffffffffffffffffffffff1614156115dc57611563610f24565b73ffffffffffffffffffffffffffffffffffffffff166115816108ff565b73ffffffffffffffffffffffffffffffffffffffff16146115d7576040517f08c379a00000000000000000000000000000000000000000000000000000000081526004016115ce90611a3c565b60405180910390fd5b61162e565b60006115e784611388565b90508181101561162c576040517f08c379a000000000000000000000000000000000000000000000000000000000815260040161162390611adc565b60405180910390fd5b505b505050565b60008135905061164281612251565b92915050565b60008135905061165781612268565b92915050565b60006020828403121561166f57600080fd5b600061167d84828501611633565b91505092915050565b6000806040838503121561169957600080fd5b60006116a785828601611633565b92505060206116b885828601611633565b9150509250929050565b6000806000606084860312156116d757600080fd5b60006116e586828701611633565b93505060206116f686828701611633565b925050604061170786828701611648565b9150509250925092565b6000806040838503121561172457600080fd5b600061173285828601611633565b925050602061174385828601611648565b9150509250929050565b60008060006060848603121561176257600080fd5b600061177086828701611633565b935050602061178186828701611648565b925050604061179286828701611648565b9150509250925092565b6117a581611d1e565b82525050565b6117b481611d30565b82525050565b60006117c582611bed565b6117cf8185611bf8565b93506117df818560208601611d8f565b6117e881611eb2565b840191505092915050565b6000611800602383611bf8565b915061180b82611ec3565b604082019050919050565b6000611823603283611bf8565b915061182e82611f12565b604082019050919050565b6000611846602683611bf8565b915061185182611f61565b604082019050919050565b6000611869602283611bf8565b915061187482611fb0565b604082019050919050565b600061188c602683611bf8565b915061189782611fff565b604082019050919050565b60006118af602a83611bf8565b91506118ba8261204e565b604082019050919050565b60006118d2602c83611bf8565b91506118dd8261209d565b604082019050919050565b60006118f5602883611bf8565b9150611900826120ec565b604082019050919050565b6000611918602083611bf8565b91506119238261213b565b602082019050919050565b600061193b602583611bf8565b915061194682612164565b604082019050919050565b600061195e602483611bf8565b9150611969826121b3565b604082019050919050565b6000611981602583611bf8565b915061198c82612202565b604082019050919050565b6119a081611d3c565b82525050565b6119af81611d78565b82525050565b6119be81611d82565b82525050565b60006020820190506119d9600083018461179c565b92915050565b60006020820190506119f460008301846117ab565b92915050565b60006020820190508181036000830152611a1481846117ba565b905092915050565b60006020820190508181036000830152611a35816117f3565b9050919050565b60006020820190508181036000830152611a5581611816565b9050919050565b60006020820190508181036000830152611a7581611839565b9050919050565b60006020820190508181036000830152611a958161185c565b9050919050565b60006020820190508181036000830152611ab58161187f565b9050919050565b60006020820190508181036000830152611ad5816118a2565b9050919050565b60006020820190508181036000830152611af5816118c5565b9050919050565b60006020820190508181036000830152611b15816118e8565b9050919050565b60006020820190508181036000830152611b358161190b565b9050919050565b60006020820190508181036000830152611b558161192e565b9050919050565b60006020820190508181036000830152611b7581611951565b9050919050565b60006020820190508181036000830152611b9581611974565b9050919050565b6000602082019050611bb16000830184611997565b92915050565b6000602082019050611bcc60008301846119a6565b92915050565b6000602082019050611be760008301846119b5565b92915050565b600081519050919050565b600082825260208201905092915050565b6000611c1482611d78565b9150611c1f83611d78565b9250827fffffffffffffffffffffffffffffffffffffffffffffffffffffffffffffffff03821115611c5457611c53611e25565b5b828201905092915050565b6000611c6a82611d78565b9150611c7583611d78565b925082611c8557611c84611e54565b5b828204905092915050565b6000611c9b82611d78565b9150611ca683611d78565b9250817fffffffffffffffffffffffffffffffffffffffffffffffffffffffffffffffff0483118215151615611cdf57611cde611e25565b5b828202905092915050565b6000611cf582611d78565b9150611d0083611d78565b925082821015611d1357611d12611e25565b5b828203905092915050565b6000611d2982611d58565b9050919050565b60008115159050919050565b60006fffffffffffffffffffffffffffffffff82169050919050565b600073ffffffffffffffffffffffffffffffffffffffff82169050919050565b6000819050919050565b600060ff82169050919050565b60005b83811015611dad578082015181840152602081019050611d92565b83811115611dbc576000848401525b50505050565b60006002820490506001821680611dda57607f821691505b60208210811415611dee57611ded611e83565b5b50919050565b6000611dff82611d78565b9150611e0a83611d78565b925082611e1a57611e19611e54565b5b828206905092915050565b7f4e487b7100000000000000000000000000000000000000000000000000000000600052601160045260246000fd5b7f4e487b7100000000000000000000000000000000000000000000000000000000600052601260045260246000fd5b7f4e487b7100000000000000000000000000000000000000000000000000000000600052602260045260246000fd5b6000601f19601f8301169050919050565b7f45524332303a207472616e7366657220746f20746865207a65726f206164647260008201527f6573730000000000000000000000000000000000000000000000000000000000602082015250565b7f45524332305665737465643a204f6e6c79206f776e657220697320616c6c6f7760008201527f656420746f206d696e7420746f6b656e732e0000000000000000000000000000602082015250565b7f4f776e61626c653a206e6577206f776e657220697320746865207a65726f206160008201527f6464726573730000000000000000000000000000000000000000000000000000602082015250565b7f45524332303a20617070726f766520746f20746865207a65726f20616464726560008201527f7373000000000000000000000000000000000000000000000000000000000000602082015250565b7f45524332303a207472616e7366657220616d6f756e742065786365656473206260008201527f616c616e63650000000000000000000000000000000000000000000000000000602082015250565b7f45524332305665737465643a20526563697069656e7420616c7265616479206860008201527f61732076657374696e6700000000000000000000000000000000000000000000602082015250565b7f45524332305665737465643a20416d6f756e74206578636565647320616d6f7560008201527f6e7420617661696c61626c650000000000000000000000000000000000000000602082015250565b7f45524332303a207472616e7366657220616d6f756e742065786365656473206160008201527f6c6c6f77616e6365000000000000000000000000000000000000000000000000602082015250565b7f4f776e61626c653a2063616c6c6572206973206e6f7420746865206f776e6572600082015250565b7f45524332303a207472616e736665722066726f6d20746865207a65726f20616460008201527f6472657373000000000000000000000000000000000000000000000000000000602082015250565b7f45524332303a20617070726f76652066726f6d20746865207a65726f2061646460008201527f7265737300000000000000000000000000000000000000000000000000000000602082015250565b7f45524332303a2064656372656173656420616c6c6f77616e63652062656c6f7760008201527f207a65726f000000000000000000000000000000000000000000000000000000602082015250565b61225a81611d1e565b811461226557600080fd5b50565b61227181611d78565b811461227c57600080fd5b5056fea2646970667358221220e96cc394f4cf7ac34d7f6e924c095bb8b1f091461721a402ea6403c139cdb4dc64736f6c63430008010033",
  "devdoc": {
    "kind": "dev",
    "methods": {
      "allowance(address,address)": {
        "details": "See {IERC20-allowance}."
      },
      "approve(address,uint256)": {
        "details": "See {IERC20-approve}. Requirements: - `spender` cannot be the zero address."
      },
      "balanceOf(address)": {
        "details": "See {IERC20-balanceOf}."
      },
      "decimals()": {
        "details": "Returns the number of decimals used to get its user representation. For example, if `decimals` equals `2`, a balance of `505` tokens should be displayed to a user as `5,05` (`505 / 10 ** 2`). Tokens usually opt for a value of 18, imitating the relationship between Ether and Wei. This is the value {ERC20} uses, unless this function is overloaded; NOTE: This information is only used for _display_ purposes: it in no way affects any of the arithmetic of the contract, including {IERC20-balanceOf} and {IERC20-transfer}."
      },
      "decreaseAllowance(address,uint256)": {
        "details": "Atomically decreases the allowance granted to `spender` by the caller. This is an alternative to {approve} that can be used as a mitigation for problems described in {IERC20-approve}. Emits an {Approval} event indicating the updated allowance. Requirements: - `spender` cannot be the zero address. - `spender` must have allowance for the caller of at least `subtractedValue`."
      },
      "increaseAllowance(address,uint256)": {
        "details": "Atomically increases the allowance granted to `spender` by the caller. This is an alternative to {approve} that can be used as a mitigation for problems described in {IERC20-approve}. Emits an {Approval} event indicating the updated allowance. Requirements: - `spender` cannot be the zero address."
      },
      "name()": {
        "details": "Returns the name of the token."
      },
      "owner()": {
        "details": "Returns the address of the current owner."
      },
      "renounceOwnership()": {
        "details": "Leaves the contract without owner. It will not be possible to call `onlyOwner` functions anymore. Can only be called by the current owner. NOTE: Renouncing ownership will leave the contract without an owner, thereby removing any functionality that is only available to the owner."
      },
      "symbol()": {
        "details": "Returns the symbol of the token, usually a shorter version of the name."
      },
      "totalSupply()": {
        "details": "See {IERC20-totalSupply}."
      },
      "transfer(address,uint256)": {
        "details": "See {IERC20-transfer}. Requirements: - `recipient` cannot be the zero address. - the caller must have a balance of at least `amount`."
      },
      "transferFrom(address,address,uint256)": {
        "details": "See {IERC20-transferFrom}. Emits an {Approval} event indicating the updated allowance. This is not required by the EIP. See the note at the beginning of {ERC20}. Requirements: - `sender` and `recipient` cannot be the zero address. - `sender` must have a balance of at least `amount`. - the caller must have allowance for ``sender``'s tokens of at least `amount`."
      },
      "transferOwnership(address)": {
        "details": "Transfers ownership of the contract to a new account (`newOwner`). Can only be called by the current owner."
      }
    },
    "version": 1
  },
  "userdoc": {
    "kind": "user",
    "methods": {},
    "version": 1
  },
  "storageLayout": {
    "storage": [
      {
        "astId": 814,
        "contract": "contracts/ERC20Vested.sol:ERC20Vested",
        "label": "_balances",
        "offset": 0,
        "slot": "0",
        "type": "t_mapping(t_address,t_uint256)"
      },
      {
        "astId": 820,
        "contract": "contracts/ERC20Vested.sol:ERC20Vested",
        "label": "_allowances",
        "offset": 0,
        "slot": "1",
        "type": "t_mapping(t_address,t_mapping(t_address,t_uint256))"
      },
      {
        "astId": 822,
        "contract": "contracts/ERC20Vested.sol:ERC20Vested",
        "label": "_totalSupply",
        "offset": 0,
        "slot": "2",
        "type": "t_uint256"
      },
      {
        "astId": 824,
        "contract": "contracts/ERC20Vested.sol:ERC20Vested",
        "label": "_name",
        "offset": 0,
        "slot": "3",
        "type": "t_string_storage"
      },
      {
        "astId": 826,
        "contract": "contracts/ERC20Vested.sol:ERC20Vested",
        "label": "_symbol",
        "offset": 0,
        "slot": "4",
        "type": "t_string_storage"
      },
      {
        "astId": 314,
        "contract": "contracts/ERC20Vested.sol:ERC20Vested",
        "label": "_owner",
        "offset": 0,
        "slot": "5",
        "type": "t_address"
      },
      {
        "astId": 28,
        "contract": "contracts/ERC20Vested.sol:ERC20Vested",
        "label": "_vestingDays",
        "offset": 0,
        "slot": "6",
        "type": "t_array(t_uint256)dyn_storage"
      },
      {
        "astId": 31,
        "contract": "contracts/ERC20Vested.sol:ERC20Vested",
        "label": "_vestingBasisPoints",
        "offset": 0,
        "slot": "7",
        "type": "t_array(t_uint256)dyn_storage"
      },
      {
        "astId": 36,
        "contract": "contracts/ERC20Vested.sol:ERC20Vested",
        "label": "_vesting",
        "offset": 0,
        "slot": "8",
        "type": "t_mapping(t_address,t_struct(vesting)18_storage)"
      }
    ],
    "types": {
      "t_address": {
        "encoding": "inplace",
        "label": "address",
        "numberOfBytes": "20"
      },
      "t_array(t_uint256)dyn_storage": {
        "base": "t_uint256",
        "encoding": "dynamic_array",
        "label": "uint256[]",
        "numberOfBytes": "32"
      },
      "t_mapping(t_address,t_mapping(t_address,t_uint256))": {
        "encoding": "mapping",
        "key": "t_address",
        "label": "mapping(address => mapping(address => uint256))",
        "numberOfBytes": "32",
        "value": "t_mapping(t_address,t_uint256)"
      },
      "t_mapping(t_address,t_struct(vesting)18_storage)": {
        "encoding": "mapping",
        "key": "t_address",
        "label": "mapping(address => struct ERC20Vested.vesting)",
        "numberOfBytes": "32",
        "value": "t_struct(vesting)18_storage"
      },
      "t_mapping(t_address,t_uint256)": {
        "encoding": "mapping",
        "key": "t_address",
        "label": "mapping(address => uint256)",
        "numberOfBytes": "32",
        "value": "t_uint256"
      },
      "t_string_storage": {
        "encoding": "bytes",
        "label": "string",
        "numberOfBytes": "32"
      },
      "t_struct(vesting)18_storage": {
        "encoding": "inplace",
        "label": "struct ERC20Vested.vesting",
        "members": [
          {
            "astId": 15,
            "contract": "contracts/ERC20Vested.sol:ERC20Vested",
            "label": "amount",
            "offset": 0,
            "slot": "0",
            "type": "t_uint256"
          },
          {
            "astId": 17,
            "contract": "contracts/ERC20Vested.sol:ERC20Vested",
            "label": "startDate",
            "offset": 0,
            "slot": "1",
            "type": "t_uint256"
          }
        ],
        "numberOfBytes": "64"
      },
      "t_uint256": {
        "encoding": "inplace",
        "label": "uint256",
        "numberOfBytes": "32"
      }
    }
  }
}